{
  "transactions": [
    {
      "hash": "0x48b6fe183e54fb30e9c1f0c0ed679e96c11a67e58228968456ce07683ff9eef4",
      "transactionType": "CREATE",
      "contractName": null,
      "contractAddress": "0x5FbDB2315678afecb367f032d93F642f64180aa3",
      "function": null,
      "arguments": null,
      "transaction": {
        "type": "0x02",
        "from": "0xf39fd6e51aad88f6f4ce6ab8827279cfffb92266",
        "gas": "0x7123d",
        "value": "0x0",
        "data": "0x6080604052348015600f57600080fd5b5061057e8061001f6000396000f3fe608060405234801561001057600080fd5b50600436106100365760003560e01c8063c5b364411461003b578063e69b9edc14610062575b600080fd5b61004e6100493660046104d8565b610075565b604051901515815260200160405180910390f35b61004e6100703660046104d8565b6102ab565b60008281527ff1a4d8eab6724b783b75a5c8d6b4a5edac1afaa52adaa7d3c57201451ce8c40060208190526040822080546100f75760405162461bcd60e51b815260206004820152601d60248201527f4e6f206865616465727320666f7220746869732070726f706f73616c2e00000060448201526064015b60405180910390fd5b8054843590829060009061010d5761010d61050b565b9060005260206000209060040201600001540361016b576003818560005b6020020135815481106101405761014061050b565b906000526020600020906004020160010160008282546101609190610521565b909155506102a39050565b8054843590829060019081106101835761018361050b565b906000526020600020906004020160000154036101e3578054600390829086359081106101b2576101b261050b565b906000526020600020906004020160010160008282546101d29190610521565b90915550600290508185600161012b565b8054600390829086359081106101fb576101fb61050b565b9060005260206000209060040201600101600082825461021b9190610521565b90915550600290508185600160200201358154811061023c5761023c61050b565b9060005260206000209060040201600101600082825461025c9190610521565b90915550600190508185600260200201358154811061027d5761027d61050b565b9060005260206000209060040201600101600082825461029d9190610521565b90915550505b505092915050565b60008281527ff1a4d8eab6724b783b75a5c8d6b4a5edac1afaa52adaa7d3c57201451ce8c400602081905260408220600181015461032b5760405162461bcd60e51b815260206004820152601a60248201527f4e6f20636d647320666f7220746869732070726f706f73616c2e00000000000060448201526064016100ee565b600181018054853591906000906103445761034461050b565b9060005260206000209060030201600001540361039a576003600182018560005b60200201358154811061037a5761037a61050b565b906000526020600020906003020160020160008282546101609190610521565b600180820180548635929081106103b3576103b361050b565b9060005260206000209060030201600001540361041a576001810180546003919086359081106103e5576103e561050b565b906000526020600020906003020160020160008282546104059190610521565b90915550600290506001808301908690610365565b6001810180546003919086359081106104355761043561050b565b906000526020600020906003020160020160008282546104559190610521565b90915550506001810180546002919060208701359081106104785761047861050b565b906000526020600020906003020160020160008282546104989190610521565b90915550506001818101805460408701359081106104b8576104b861050b565b9060005260206000209060030201600201600082825461029d9190610521565b600080608083850312156104eb57600080fd5b82359150836080840111156104ff57600080fd5b50926020919091019150565b634e487b7160e01b600052603260045260246000fd5b8082018082111561054257634e487b7160e01b600052601160045260246000fd5b9291505056fea26469706673582212202fb9aad69abb68f20c0dd302f1c26fe0e3df4662fc2d68fc4eb93e7375629f6e64736f6c63430008190033",
        "nonce": "0x0",
        "accessList": []
      },
      "additionalContracts": [],
      "isFixedGasLimit": false
    },
    {
      "hash": "0xf839682d7b7ed2ffd089c74caba358df5eee95b71635bd2029f481f22766df03",
      "transactionType": "CREATE",
      "contractName": "Clone",
      "contractAddress": "0xe7f1725E7734CE288F8367e1Bb143E90bb3F0512",
      "function": null,
      "arguments": null,
      "transaction": {
        "type": "0x02",
        "from": "0xf39fd6e51aad88f6f4ce6ab8827279cfffb92266",
        "gas": "0x9fc91",
        "value": "0x0",
        "data": "0x6080604052348015600f57600080fd5b506108268061001f6000396000f3fe608060405234801561001057600080fd5b506004361061002b5760003560e01c80638ca89f7714610030575b600080fd5b61004361003e36600461011b565b61005f565b6040516001600160a01b03909116815260200160405180910390f35b60006100927f267691be3525af8a813d30db0c9e2bad08f63baecf6dceb85e2cf3676cff56f4546001600160a01b031690565b83836040516100a09061010e565b6100ac9392919061018d565b604051809103906000f0801580156100c8573d6000803e3d6000fd5b506040516001600160a01b03821681529091507fceb1c64c35a8e293f818b28979931c8b695dd0e4953939401df3db6e6f7a379c9060200160405180910390a192915050565b610623806101ce83390190565b6000806020838503121561012e57600080fd5b823567ffffffffffffffff8082111561014657600080fd5b818501915085601f83011261015a57600080fd5b81358181111561016957600080fd5b86602082850101111561017b57600080fd5b60209290920196919550909350505050565b6001600160a01b03841681526040602082018190528101829052818360608301376000818301606090810191909152601f909201601f191601019291505056fe608060405260405161062338038061062383398101604081905261002291610387565b818161002e8282610041565b5061003a905082610119565b50506104b5565b61004a82610182565b6040516001600160a01b038316907fa657f2ad315cf3bb35cf1964158da75c3f334481df05a4a1644b2376b17a59b290600090a280511561010d576101086001600160a01b03831663dc9cc6456100a084610447565b6040516001600160e01b031960e084901b81168252919091166004820152602401602060405180830381865afa1580156100de573d6000803e3d6000fd5b505050506040513d601f19601f82011682018060405250810190610102919061047e565b82610211565b505050565b610115610288565b5050565b7fa3f0ad74e5423aebfd80d3ef4346578335a9a72aeaee59ff6cb3582b35133d5080546001600160a01b0319166001600160a01b0383169081179091556040517f1cf3b03a6cf19fa2baba4df148e9dcabedea7f8a5c07840e207e5c089be95d3e90600090a250565b806001600160a01b03163b6000036101d05760405162461bcd60e51b815260206004820152600c60248201526b1393d397d0d3d395149050d560a21b60448201526064015b60405180910390fd5b7f267691be3525af8a813d30db0c9e2bad08f63baecf6dceb85e2cf3676cff56f480546001600160a01b0319166001600160a01b0392909216919091179055565b6060600080846001600160a01b03168460405161022e9190610499565b600060405180830381855af49150503d8060008114610269576040519150601f19603f3d011682016040523d82523d6000602084013e61026e565b606091505b50909250905061027f8583836102a9565b95945050505050565b34156102a75760405163b398979f60e01b815260040160405180910390fd5b565b6060826102be576102b982610308565b610301565b81511580156102d557506001600160a01b0384163b155b156102fe57604051639996b31560e01b81526001600160a01b03851660048201526024016101c7565b50805b9392505050565b8051156103185780518082602001fd5b604051630a12f52160e11b815260040160405180910390fd5b80516001600160a01b038116811461034857600080fd5b919050565b634e487b7160e01b600052604160045260246000fd5b60005b8381101561037e578181015183820152602001610366565b50506000910152565b6000806040838503121561039a57600080fd5b6103a383610331565b60208401519092506001600160401b03808211156103c057600080fd5b818501915085601f8301126103d457600080fd5b8151818111156103e6576103e661034d565b604051601f8201601f19908116603f0116810190838211818310171561040e5761040e61034d565b8160405282815288602084870101111561042757600080fd5b610438836020830160208801610363565b80955050505050509250929050565b805160208201516001600160e01b031980821692919060048310156104765780818460040360031b1b83161693505b505050919050565b60006020828403121561049057600080fd5b61030182610331565b600082516104ab818460208701610363565b9190910192915050565b61015f806104c46000396000f3fe60806040523661000b57005b610013610015565b005b610025610020610027565b6100d5565b565b600061005a7f267691be3525af8a813d30db0c9e2bad08f63baecf6dceb85e2cf3676cff56f4546001600160a01b031690565b60405163dc9cc64560e01b81526001600160e01b03196000351660048201526001600160a01b03919091169063dc9cc64590602401602060405180830381865afa1580156100ac573d6000803e3d6000fd5b505050506040513d601f19601f820116820180604052508101906100d091906100f9565b905090565b3660008037600080366000845af43d6000803e8080156100f4573d6000f35b3d6000fd5b60006020828403121561010b57600080fd5b81516001600160a01b038116811461012257600080fd5b939250505056fea26469706673582212203304df6836c2c604ba4a6acb8b67f3df28955d452e23f358f7eee2c254d84b1464736f6c63430008190033a264697066735822122094d1a1781c160fbcd6784bd0249efaa531d185eaa3d671619e33a270bfcb241964736f6c63430008190033",
        "nonce": "0x1",
        "accessList": []
      },
      "additionalContracts": [],
      "isFixedGasLimit": false
    },
    {
      "hash": "0xfffb9b5a09aa4348e04b7e4c8abcefa50921f7c8a2898ac297ff863c7724cb89",
      "transactionType": "CREATE",
      "contractName": null,
      "contractAddress": "0x9fE46736679d2D9a65F0992F2272dE9f3c7fa6e0",
      "function": null,
      "arguments": null,
      "transaction": {
        "type": "0x02",
        "from": "0xf39fd6e51aad88f6f4ce6ab8827279cfffb92266",
        "gas": "0x50cbf",
        "value": "0x0",
        "data": "0x6080604052348015600f57600080fd5b506103a48061001f6000396000f3fe608060405234801561001057600080fd5b506004361061002b5760003560e01c8063dc1ec0e514610030575b600080fd5b61004361003e36600461026f565b610057565b604051901515815260200160405180910390f35b7f2f8cab7d49dc616a0e8eb4e6f8b67d31c656445bf0c9ad5e38bc38d1128dcc01546000907f2f8cab7d49dc616a0e8eb4e6f8b67d31c656445bf0c9ad5e38bc38d1128dcc0090156100ef5760405162461bcd60e51b815260206004820152601f60248201527f496e697469616c697a653a20616c726561647920696e697469616c697a656400604482015260640160405180910390fd5b82357ff1a4d8eab6724b783b75a5c8d6b4a5edac1afaa52adaa7d3c57201451ce8c40290815560208401357ff1a4d8eab6724b783b75a5c8d6b4a5edac1afaa52adaa7d3c57201451ce8c4035560408401357ff1a4d8eab6724b783b75a5c8d6b4a5edac1afaa52adaa7d3c57201451ce8c4045560608401357ff1a4d8eab6724b783b75a5c8d6b4a5edac1afaa52adaa7d3c57201451ce8c405557f2f8cab7d49dc616a0e8eb4e6f8b67d31c656445bf0c9ad5e38bc38d1128dcc01547f2f8cab7d49dc616a0e8eb4e6f8b67d31c656445bf0c9ad5e38bc38d1128dcc00919060005b8781101561025e5760008281526020859052604090208290558888828181106101fd576101fd610301565b90506020020160208101906102129190610317565b60008381526020869052604081206001810180546001600160a01b0319166001600160a01b0394909416939093179092556002909101558161025381610347565b9250506001016101d2565b506001928301555095945050505050565b600080600083850360a081121561028557600080fd5b843567ffffffffffffffff8082111561029d57600080fd5b818701915087601f8301126102b157600080fd5b8135818111156102c057600080fd5b8860208260051b85010111156102d557600080fd5b6020929092019550909350506080601f19820112156102f357600080fd5b506020840190509250925092565b634e487b7160e01b600052603260045260246000fd5b60006020828403121561032957600080fd5b81356001600160a01b038116811461034057600080fd5b9392505050565b60006001820161036757634e487b7160e01b600052601160045260246000fd5b506001019056fea26469706673582212205c6a964d32a5f829563950832eca074ce184468a3420747007e6ba556525d4f864736f6c63430008190033",
        "nonce": "0x2",
        "accessList": []
      },
      "additionalContracts": [],
      "isFixedGasLimit": false
    },
    {
      "hash": "0x16014057aecd6e8861603bb43d6f97b11edbb7f248975ca7e2ef55ce77fc4529",
      "transactionType": "CREATE",
      "contractName": null,
      "contractAddress": "0xCf7Ed3AccA5a467e9e704C703E8D87F634fB0Fc9",
      "function": null,
      "arguments": null,
      "transaction": {
        "type": "0x02",
        "from": "0xf39fd6e51aad88f6f4ce6ab8827279cfffb92266",
        "gas": "0x12ec61",
        "value": "0x0",
        "data": "0x6080604052348015600f57600080fd5b5061104d8061001f6000396000f3fe608060405234801561001057600080fd5b50600436106100365760003560e01c806338ba46141461003b5780639f46786e14610063575b600080fd5b61004e610049366004610931565b610084565b60405190151581526020015b60405180910390f35b6100766100713660046109fb565b6101cc565b60405190815260200161005a565b60008281527f67f28ff67f7d7020f2b2ac7c9bd5f2a6dd9f19a9b15d92c4070c4572728ab00060208181526040808420600181015485527ff1a4d8eab6724b783b75a5c8d6b4a5edac1afaa52adaa7d3c57201451ce8c400928390529084209091907f2f8cab7d49dc616a0e8eb4e6f8b67d31c656445bf0c9ad5e38bc38d1128dcc0086865b81518110156101bf576000836001015483838151811061012c5761012c610a3d565b602002602001015161013e9190610a53565b60008181526020869052604090206001015460098701546008880180549394506001600160a01b0390921692811061017857610178610a3d565b6000918252602082200180546001600160a01b0319166001600160a01b039390931692909217909155600986018054916101b183610a8b565b90915550505060010161010a565b5050505050505092915050565b60007f2f8cab7d49dc616a0e8eb4e6f8b67d31c656445bf0c9ad5e38bc38d1128dcc0081805b826001015481101561022d576000818152602084905260409020600101546001600160a01b03163314806102235750815b91506001016101f2565b50806102805760405162461bcd60e51b815260206004820152601760248201527f596f7520617265206e6f7420746865206d656d6265722e00000000000000000060448201526064015b60405180910390fd5b60008381527ff1a4d8eab6724b783b75a5c8d6b4a5edac1afaa52adaa7d3c57201451ce8c400602081905260409091207f2f8cab7d49dc616a0e8eb4e6f8b67d31c656445bf0c9ad5e38bc38d1128dcc01547ff1a4d8eab6724b783b75a5c8d6b4a5edac1afaa52adaa7d3c57201451ce8c404547f67f28ff67f7d7020f2b2ac7c9bd5f2a6dd9f19a9b15d92c4070c4572728ab000917f2f8cab7d49dc616a0e8eb4e6f8b67d31c656445bf0c9ad5e38bc38d1128dcc0091101561085657600282015467ffffffffffffffff166103e55760405162461bcd60e51b815260206004820152605860248201527f4e6f20436861696e6c696e6b2056524620737562736372697074696f6e2e205460448201527f727920536574436f6e6669677350726f7465637465643a3a637265617465416e60648201527f6446756e64537562736372697074696f6e2066697273742e0000000000000000608482015260a401610277565b60038201546001600160a01b03166104775760405162461bcd60e51b815260206004820152604960248201527f4e6f20436861696e6c696e6b2056524620767266436f6f7264696e61746f722e60448201527f205472792053657456524650726f7465637465643a3a736574565246436f6e6660648201526834b3903334b939ba1760b91b608482015260a401610277565b60048201546000036105005760405162461bcd60e51b815260206004820152604660248201527f4e6f20436861696e6c696e6b20565246206b6579486173682e2054727920536560448201527f74436f6e6669677350726f7465637465643a3a736574565246436f6e666967206064820152653334b939ba1760d11b608482015260a401610277565b600582015463ffffffff166000036105985760405162461bcd60e51b815260206004820152604f60248201527f4e6f20436861696e6c696e6b205652462063616c6c6261636b4761734c696d6960448201527f742e2054727920536574436f6e6669677350726f7465637465643a3a7365745660648201526e292321b7b73334b3903334b939ba1760891b608482015260a401610277565b6005820154640100000000900461ffff1660000361063a5760405162461bcd60e51b815260206004820152605360248201527f4e6f20436861696e6c696e6b205652462072657175657374436f6e6669726d6160448201527f74696f6e732e2054727920536574436f6e6669677350726f7465637465643a3a60648201527239b2ba2b292321b7b73334b3903334b939ba1760691b608482015260a401610277565b60058201546601000000000000900463ffffffff166000036106d45760405162461bcd60e51b815260206004820152604760248201527f4e6f20436861696e6c696e6b20565246206e756d576f7264732e20547279205360448201527f6574436f6e6669677350726f7465637465643a3a736574565246436f6e666967606482015266103334b939ba1760c91b608482015260a401610277565b6005820154600160501b90046001600160a01b031661075b5760405162461bcd60e51b815260206004820152603f60248201527f4e6f20436861696e6c696e6b20565246204c494e4b544f4b454e2e205472792060448201527f536574436f6e666967733a3a736574565246436f6e6669672066697273742e006064820152608401610277565b6003820154600480840154600285015460058601546040516305d3b1d360e41b81529384019290925267ffffffffffffffff166024830152640100000000810461ffff16604483015263ffffffff808216606484015266010000000000009091041660848201526000916001600160a01b031690635d3b1d309060a4016020604051808303816000875af11580156107f7573d6000803e3d6000fd5b505050506040513d601f19601f8201168201806040525081019061081b9190610aa4565b600180850180546000908152602087905260408082208590558254825281209092018b905580549293509061084f83610a8b565b9190505550505b60006108628980610abd565b506020111561089b57826108768980610abd565b8154600181018355600092835260209092209091600402016108988282610b47565b50505b60006108aa60208a018a610bf4565b6108b8906020810190610add565b905011156108f657600183016108d160208a018a610bf4565b8154600181018355600092835260209092209091600302016108f38282610ed9565b50505b60018401805497508790600061090b83610a8b565b9190505550505050505050919050565b634e487b7160e01b600052604160045260246000fd5b6000806040838503121561094457600080fd5b8235915060208084013567ffffffffffffffff8082111561096457600080fd5b818601915086601f83011261097857600080fd5b81358181111561098a5761098a61091b565b8060051b604051601f19603f830116810181811085821117156109af576109af61091b565b6040529182528482019250838101850191898311156109cd57600080fd5b938501935b828510156109eb578435845293850193928501926109d2565b8096505050505050509250929050565b600060208284031215610a0d57600080fd5b813567ffffffffffffffff811115610a2457600080fd5b820160608185031215610a3657600080fd5b9392505050565b634e487b7160e01b600052603260045260246000fd5b600082610a7057634e487b7160e01b600052601260045260246000fd5b500690565b634e487b7160e01b600052601160045260246000fd5b600060018201610a9d57610a9d610a75565b5060010190565b600060208284031215610ab657600080fd5b5051919050565b60008235607e19833603018112610ad357600080fd5b9190910192915050565b6000808335601e19843603018112610af457600080fd5b83018035915067ffffffffffffffff821115610b0f57600080fd5b6020019150600581901b3603821315610b2757600080fd5b9250929050565b5b81811015610b435760008155600101610b2f565b5050565b81358155600160208084013560018401556040840135600284015560038301610b736060860186610add565b67ffffffffffffffff811115610b8b57610b8b61091b565b600160401b811115610b9f57610b9f61091b565b825481845580821015610bc557836000526020600020610bc3828201848301610b2e565b505b50600092835260208320925b81811015610bea57823584820155918401918501610bd1565b5050505050505050565b60008235605e19833603018112610ad357600080fd5b60008235603e19833603018112610ad357600080fd5b600181811c90821680610c3457607f821691505b602082108103610c5457634e487b7160e01b600052602260045260246000fd5b50919050565b610c648154610c20565b8015610b4357601f811160018114610c7e57505060009055565b826000526020600020610c9c601f840160051c820160018301610b2e565b600080855590555b505050565b6000808335601e19843603018112610cc057600080fd5b83018035915067ffffffffffffffff821115610cdb57600080fd5b602001915036819003821315610b2757600080fd5b601f821115610ca457806000526020600020601f840160051c81016020851015610d175750805b610d29601f850160051c830182610b2e565b5050505050565b67ffffffffffffffff831115610d4857610d4861091b565b610d5c83610d568354610c20565b83610cf0565b6000601f841160018114610d905760008515610d785750838201355b600019600387901b1c1916600186901b178355610d29565b600083815260209020601f19861690835b82811015610dc15786850135825560209485019460019092019101610da1565b5086821015610dde5760001960f88860031b161c19848701351681555b505060018560011b0183555050505050565b610dfa8283610ca9565b67ffffffffffffffff811115610e1257610e1261091b565b610e2681610e208554610c20565b85610cf0565b6000601f821160018114610e5a5760008315610e425750838201355b600019600385901b1c1916600184901b178555610eb4565b600085815260209020601f19841690835b82811015610e8b5786850135825560209485019460019092019101610e6b565b5084821015610ea85760001960f88660031b161c19848701351681555b505060018360011b0185555b50505050610ec56020830183610ca9565b610ed3818360018601610d30565b50505050565b8135815560018082016020610ef16020860186610add565b600160401b811115610f0557610f0561091b565b835481855580821015610fc7576001600160ff1b038181168214610f2b57610f2b610a75565b8083168314610f3c57610f3c610a75565b5060008581526020812083881b81019083891b015b80821015610fc357610f638254610c20565b8015610fac57601f80821160018114610f7e57858555610fa9565b600085815260209020610f9a83850160051c82018e8301610b2e565b50600085815260208120818755555b50505b50610fb8898301610c5a565b600282019150610f51565b5050505b506000938452602084209382905b8281101561100257610ff0610fea8386610c0a565b87610df0565b60029590950194908401908601610fd5565b5050505050505060408201356002820155505056fea26469706673582212209bc4770b3246cc01c4e8f25a0810ca95d7550b9584f476955d529e578c5afbc364736f6c63430008190033",
        "nonce": "0x3",
        "accessList": []
      },
      "additionalContracts": [],
      "isFixedGasLimit": false
    },
    {
      "hash": "0x1fbc6dadc6d9bf41174760d75791d94be9fa6c132bba51b12f39a78a8c11b432",
      "transactionType": "CREATE",
      "contractName": null,
      "contractAddress": "0xDc64a140Aa3E981100a9becA4E685f962f0cF6C9",
      "function": null,
      "arguments": null,
      "transaction": {
        "type": "0x02",
        "from": "0xf39fd6e51aad88f6f4ce6ab8827279cfffb92266",
        "gas": "0x9f133",
        "value": "0x0",
        "data": "0x6080604052348015600f57600080fd5b5061081b8061001f6000396000f3fe608060405234801561001057600080fd5b506004361061002b5760003560e01c8063603d9eb714610030575b600080fd5b61004361003e3660046101fb565b610055565b60405190815260200160405180910390f35b60008281527ff1a4d8eab6724b783b75a5c8d6b4a5edac1afaa52adaa7d3c57201451ce8c40060208190526040822084919083805b60088301548110156100d757600883018054339190839081106100af576100af610249565b6000918252602090912001546001600160a01b031614806100cd5750815b915060010161008a565b50806101205760405162461bcd60e51b81526020600482015260146024820152732cb7ba9030b932903737ba103a3432903932b81760611b604482015260640160405180910390fd5b60008781527ff1a4d8eab6724b783b75a5c8d6b4a5edac1afaa52adaa7d3c57201451ce8c400602081905260408220909161015b898061025f565b5060201115610194578061016f898061025f565b815460018101835560009283526020909220909160040201610191828261032f565b50505b60006101a360208a018a6103dc565b6101b190602081019061027f565b905011156101ef57600181016101ca60208a018a6103dc565b8154600181018355600092835260209092209091600302016101ec82826106c1565b50505b50505050505092915050565b6000806040838503121561020e57600080fd5b82359150602083013567ffffffffffffffff81111561022c57600080fd5b83016060818603121561023e57600080fd5b809150509250929050565b634e487b7160e01b600052603260045260246000fd5b60008235607e1983360301811261027557600080fd5b9190910192915050565b6000808335601e1984360301811261029657600080fd5b83018035915067ffffffffffffffff8211156102b157600080fd5b6020019150600581901b36038213156102c957600080fd5b9250929050565b634e487b7160e01b600052604160045260246000fd5b600181901b6001600160ff1b038216821461031157634e487b7160e01b600052601160045260246000fd5b919050565b5b8181101561032b5760008155600101610317565b5050565b8135815560016020808401356001840155604084013560028401556003830161035b606086018661027f565b67ffffffffffffffff811115610373576103736102d0565b600160401b811115610387576103876102d0565b8254818455808210156103ad578360005260206000206103ab828201848301610316565b505b50600092835260208320925b818110156103d2578235848201559184019185016103b9565b5050505050505050565b60008235605e1983360301811261027557600080fd5b60008235603e1983360301811261027557600080fd5b600181811c9082168061041c57607f821691505b60208210810361043c57634e487b7160e01b600052602260045260246000fd5b50919050565b61044c8154610408565b801561032b57601f81116001811461046657505060009055565b826000526020600020610484601f840160051c820160018301610316565b600080855590555b505050565b6000808335601e198436030181126104a857600080fd5b83018035915067ffffffffffffffff8211156104c357600080fd5b6020019150368190038213156102c957600080fd5b601f82111561048c57806000526020600020601f840160051c810160208510156104ff5750805b610511601f850160051c830182610316565b5050505050565b67ffffffffffffffff831115610530576105306102d0565b6105448361053e8354610408565b836104d8565b6000601f84116001811461057857600085156105605750838201355b600019600387901b1c1916600186901b178355610511565b600083815260209020601f19861690835b828110156105a95786850135825560209485019460019092019101610589565b50868210156105c65760001960f88860031b161c19848701351681555b505060018560011b0183555050505050565b6105e28283610491565b67ffffffffffffffff8111156105fa576105fa6102d0565b61060e816106088554610408565b856104d8565b6000601f821160018114610642576000831561062a5750838201355b600019600385901b1c1916600184901b17855561069c565b600085815260209020601f19841690835b828110156106735786850135825560209485019460019092019101610653565b50848210156106905760001960f88660031b161c19848701351681555b505060018360011b0185555b505050506106ad6020830183610491565b6106bb818360018601610518565b50505050565b81358155600180820160206106d9602086018661027f565b600160401b8111156106ed576106ed6102d0565b83548185558082101561079557610703816102e6565b61070c836102e6565b6000878152602081209283019291909101905b82821015610791576107318254610408565b801561077a57601f8082116001811461074c57838555610777565b60008581526020902061076883850160051c82018e8301610316565b50600085815260208120818755555b50505b50610786898301610442565b60028201915061071f565b5050505b506000938452602084209382905b828110156107d0576107be6107b883866103f2565b876105d8565b600295909501949084019086016107a3565b5050505050505060408201356002820155505056fea26469706673582212204f460bc72636e55bfc7af438999168977c3b8a70eab5c1741cb6d041c086e68a64736f6c63430008190033",
        "nonce": "0x4",
        "accessList": []
      },
      "additionalContracts": [],
      "isFixedGasLimit": false
    },
    {
      "hash": "0xb51ac3aa2ea1e87798f01a967d1c376aa629b9d494ade27460f1635a2f435536",
      "transactionType": "CREATE",
      "contractName": null,
      "contractAddress": "0x5FC8d32690cc91D4c39d9d3abcBD16989F875707",
      "function": null,
      "arguments": null,
      "transaction": {
        "type": "0x02",
        "from": "0xf39fd6e51aad88f6f4ce6ab8827279cfffb92266",
        "gas": "0x1cedea",
        "value": "0x0",
        "data": "0x6080604052348015600f57600080fd5b5061196c8061001f6000396000f3fe608060405234801561001057600080fd5b506004361061002b5760003560e01c8063ed8b6b3114610030575b600080fd5b61004361003e366004611748565b610057565b604051901515815260200160405180910390f35b60008181527ff1a4d8eab6724b783b75a5c8d6b4a5edac1afaa52adaa7d3c57201451ce8c4006020819052604082207ff1a4d8eab6724b783b75a5c8d6b4a5edac1afaa52adaa7d3c57201451ce8c40354849291906100fd5760405162461bcd60e51b815260206004820152601d60248201527f5365742074616c6c7920696e74657276616c20617420636f6e6669672e00000060448201526064015b60405180910390fd5b600382015460028201906000906101149042611777565b815260208101919091526040016000205460ff161561017f5760405162461bcd60e51b815260206004820152602160248201527f5468697320696e74657276616c20697320616c72656164792074616c6c6965646044820152601760f91b60648201526084016100f4565b60008581527ff1a4d8eab6724b783b75a5c8d6b4a5edac1afaa52adaa7d3c57201451ce8c4006020819052604090912080600181017f531151f4103280746205c56419d2c949e0976d9ee39d3c364618181eba5ee5006101dd611607565b6002860154600a86015442916101f291611799565b116102775760405162461bcd60e51b815260206004820152604960248201527f546869732070726f706f73616c20686173206265656e20657870697265642e2060448201527f596f752063616e6e6f742072756e206e65772074616c6c7920746f20757064616064820152683a32903930b735b99760b91b608482015260a4016100f4565b835467ffffffffffffffff811115610291576102916117ac565b6040519080825280602002602001820160405280156102ba578160200160208202803683370190505b50815283546040805160208084028201810190925282815261039792909187919060009084015b8282101561038957838290600052602060002090600402016040518060800160405290816000820154815260200160018201548152602001600282015481526020016003820180548060200260200160405190810160405280929190818152602001828054801561037157602002820191906000526020600020905b81548152602001906001019080831161035d575b505050505081525050815260200190600101906102e1565b505050506006870154611209565b8152825467ffffffffffffffff8111156103b3576103b36117ac565b6040519080825280602002602001820160405280156103dc578160200160208202803683370190505b5081602001819052506105e083805480602002602001604051908101604052809291908181526020016000905b828210156105d257838290600052602060002090600302016040518060600160405290816000820154815260200160018201805480602002602001604051908101604052809291908181526020016000905b828210156105b1578382906000526020600020906002020160405180604001604052908160008201805461048e906117c2565b80601f01602080910402602001604051908101604052809291908181526020018280546104ba906117c2565b80156105075780601f106104dc57610100808354040283529160200191610507565b820191906000526020600020905b8154815290600101906020018083116104ea57829003601f168201915b50505050508152602001600182018054610520906117c2565b80601f016020809104026020016040519081016040528092919081815260200182805461054c906117c2565b80156105995780601f1061056e57610100808354040283529160200191610599565b820191906000526020600020905b81548152906001019060200180831161057c57829003601f168201915b5050505050815250508152602001906001019061045b565b50505050815260200160028201548152505081526020019060010190610409565b505050506007870154611425565b602082015280518051600091869183906105fc576105fc6117fc565b602002602001015181548110610614576106146117fc565b90600052602060002090600402016001015490506000876002016003015482101590506000858460200151600081518110610651576106516117fc565b602002602001015181548110610669576106696117fc565b90600052602060002090600302019050600081600201549050816001018054905067ffffffffffffffff8111156106a2576106a26117ac565b6040519080825280602002602001820160405280156106cb578160200160208202803683370190505b50604086015260005b60018301548110156108755760008360010182815481106106f7576106f76117fc565b9060005260206000209060020201905060008860000160006107aa846000018054610721906117c2565b80601f016020809104026020016040519081016040528092919081815260200182805461074d906117c2565b801561079a5780601f1061076f5761010080835404028352916020019161079a565b820191906000526020600020905b81548152906001019060200180831161077d57829003601f168201915b5050505050805160209091012090565b6001600160e01b0319168152602081019190915260400160002054905080156107fc5780841015886040015184815181106107e7576107e76117fc565b9115156020928302919091019091015261082e565b8c600201600301548410158860400151848151811061081d5761081d6117fc565b911515602092830291909101909101525b87604001518381518110610844576108446117fc565b60200260200101511561085d576001606089015261086b565b505060006060870152610875565b50506001016106d4565b5060048901546000036108b657604080516003808252608082019092529060208201606080368337505081516108b49260048d0192506020019061165a565b505b821561098857845180516000906108cf576108cf6117fc565b6020026020010151896003016001016000815481106108f0576108f06117fc565b600091825260209091200155845180516001908110610911576109116117fc565b602002602001015189600301600101600181548110610932576109326117fc565b600091825260209091200155845180516002908110610953576109536117fc565b602002602001015189600301600101600281548110610974576109746117fc565b600091825260209091200155875460068a01555b60058901546000036109c857604080516003808252608082019092529060208201606080368337505081516109c69260058d0192506020019061165a565b505b846060015115610aaa5784602001516000815181106109e9576109e96117fc565b602002602001015189600301600201600081548110610a0a57610a0a6117fc565b90600052602060002001819055508460200151600181518110610a2f57610a2f6117fc565b602002602001015189600301600201600181548110610a5057610a506117fc565b90600052602060002001819055508460200151600281518110610a7557610a756117fc565b602002602001015189600301600201600281548110610a9657610a966117fc565b600091825260209091200155865460078a01555b60005b6003811015610dd25760048a01805482908110610acc57610acc6117fc565b60009182526020909120015460c087015260058a01805482908110610af357610af36117fc565b60009182526020909120015460e0870152895460c08701511015610bd557896000018660c0015181548110610b2a57610b2a6117fc565b906000526020600020906004020160405180608001604052908160008201548152602001600182015481526020016002820154815260200160038201805480602002602001604051908101604052809291908181526020018280548015610bb057602002820191906000526020600020905b815481526020019060010190808311610b9c575b50505050508152505086608001518260038110610bcf57610bcf6117fc565b60200201525b60018a015460e08701511015610dca57896001018660e0015181548110610bfe57610bfe6117fc565b90600052602060002090600302016040518060600160405290816000820154815260200160018201805480602002602001604051908101604052809291908181526020016000905b82821015610d9c5783829060005260206000209060020201604051806040016040529081600082018054610c79906117c2565b80601f0160208091040260200160405190810160405280929190818152602001828054610ca5906117c2565b8015610cf25780601f10610cc757610100808354040283529160200191610cf2565b820191906000526020600020905b815481529060010190602001808311610cd557829003601f168201915b50505050508152602001600182018054610d0b906117c2565b80601f0160208091040260200160405190810160405280929190818152602001828054610d37906117c2565b8015610d845780601f10610d5957610100808354040283529160200191610d84565b820191906000526020600020905b815481529060010190602001808311610d6757829003601f168201915b50505050508152505081526020019060010190610c46565b5050505081526020016002820154815250508660a001518260038110610dc457610dc46117fc565b60200201525b600101610aad565b5060005b600381101561116a5785608001518160038110610df557610df56117fc565b60200201515160c08701518b548c91908110610e1357610e136117fc565b600091825260209091206004909102015560808601518160038110610e3a57610e3a6117fc565b6020020151602001518a6000018760c0015181548110610e5c57610e5c6117fc565b90600052602060002090600402016001018190555085608001518160038110610e8757610e876117fc565b6020020151604001518a6000018760c0015181548110610ea957610ea96117fc565b90600052602060002090600402016002018190555060005b86608001518260038110610ed757610ed76117fc565b60200201516060015151811015610f6f5786608001518260038110610efe57610efe6117fc565b6020020151606001518181518110610f1857610f186117fc565b60200260200101518b6000018860c0015181548110610f3957610f396117fc565b90600052602060002090600402016003018281548110610f5b57610f5b6117fc565b600091825260209091200155600101610ec1565b508560a001518160038110610f8657610f866117fc565b6020020151600001518a6001018760e0015181548110610fa857610fa86117fc565b600091825260208220600390910201919091555b8660a001518260038110610fd257610fd26117fc565b60200201516020015151811015611115578660a001518260038110610ff957610ff96117fc565b6020020151602001518181518110611013576110136117fc565b6020026020010151600001518b6001018860e0015181548110611038576110386117fc565b9060005260206000209060030201600101828154811061105a5761105a6117fc565b906000526020600020906002020160000190816110779190611863565b508660a00151826003811061108e5761108e6117fc565b60200201516020015181815181106110a8576110a86117fc565b6020026020010151602001518b6001018860e00151815481106110cd576110cd6117fc565b906000526020600020906003020160010182815481106110ef576110ef6117fc565b9060005260206000209060020201600101908161110c9190611863565b50600101610fbc565b508560a00151816003811061112c5761112c6117fc565b6020020151604001518a6001018760e001518154811061114e5761114e6117fc565b6000918252602090912060026003909202010155600101610dd6565b5060038a01546111bc5760405162461bcd60e51b815260206004820152601d60248201527f5365742074616c6c7920696e74657276616c20617420636f6e6669672e00000060448201526064016100f4565b60018960020160008c60020160010154426111d79190611777565b81526020810191909152604001600020805460ff1916911515919091179055509b9d9c50505050505050505050505050565b815160609080831061124a5760005b604051908082528060200260200182016040528015611241578160200160208202803683370190505b5091505061141f565b60006112568483611923565b905060008167ffffffffffffffff811115611273576112736117ac565b60405190808252806020026020018201604052801561129c578160200160208202803683370190505b50905060005b828110156112d9576112b48682611799565b8282815181106112c6576112c66117fc565b60209081029190910101526001016112a2565b5060005b828110156114195760005b60016112f48386611923565b6112fe9190611923565b811015611410578783611312836001611799565b81518110611322576113226117fc565b60200260200101518151811061133a5761133a6117fc565b60200260200101516020015188848381518110611359576113596117fc565b602002602001015181518110611371576113716117fc565b6020026020010151602001511015611408578261138f826001611799565b8151811061139f5761139f6117fc565b60200260200101518382815181106113b9576113b96117fc565b60200260200101518483815181106113d3576113d36117fc565b60200260200101858460016113e89190611799565b815181106113f8576113f86117fc565b6020908102919091010191909152525b6001016112e8565b506001016112dd565b50925050505b92915050565b8151606090808310611438576000611218565b60006114448483611923565b905060008167ffffffffffffffff811115611461576114616117ac565b60405190808252806020026020018201604052801561148a578160200160208202803683370190505b50905060005b828110156114c7576114a28682611799565b8282815181106114b4576114b46117fc565b6020908102919091010152600101611490565b5060005b828110156114195760005b60016114e28386611923565b6114ec9190611923565b8110156115fe578783611500836001611799565b81518110611510576115106117fc565b602002602001015181518110611528576115286117fc565b60200260200101516040015188848381518110611547576115476117fc565b60200260200101518151811061155f5761155f6117fc565b60200260200101516040015110156115f6578261157d826001611799565b8151811061158d5761158d6117fc565b60200260200101518382815181106115a7576115a76117fc565b60200260200101518483815181106115c1576115c16117fc565b60200260200101858460016115d69190611799565b815181106115e6576115e66117fc565b6020908102919091010191909152525b6001016114d6565b506001016114cb565b6040518061010001604052806060815260200160608152602001606081526020016000151581526020016116396116a5565b81526020016116466116ea565b815260200160008152602001600081525090565b828054828255906000526020600020908101928215611695579160200282015b8281111561169557825182559160200191906001019061167a565b506116a1929150611733565b5090565b60405180606001604052806003905b60408051608081018252600080825260208083018290529282015260608082015282526000199092019101816116b45790505090565b60405180606001604052806003905b61171d60405180606001604052806000815260200160608152602001600081525090565b8152602001906001900390816116f95790505090565b5b808211156116a15760008155600101611734565b60006020828403121561175a57600080fd5b5035919050565b634e487b7160e01b600052601160045260246000fd5b60008261179457634e487b7160e01b600052601260045260246000fd5b500490565b8082018082111561141f5761141f611761565b634e487b7160e01b600052604160045260246000fd5b600181811c908216806117d657607f821691505b6020821081036117f657634e487b7160e01b600052602260045260246000fd5b50919050565b634e487b7160e01b600052603260045260246000fd5b601f82111561185e576000816000526020600020601f850160051c8101602086101561183b5750805b601f850160051c820191505b8181101561185a57828155600101611847565b5050505b505050565b815167ffffffffffffffff81111561187d5761187d6117ac565b6118918161188b84546117c2565b84611812565b602080601f8311600181146118c657600084156118ae5750858301515b600019600386901b1c1916600185901b17855561185a565b600085815260208120601f198616915b828110156118f5578886015182559484019460019091019084016118d6565b50858210156119135787850151600019600388901b60f8161c191681555b5050505050600190811b01905550565b8181038181111561141f5761141f61176156fea2646970667358221220c9a8534035cbb38cfe36e077945fa9aedf3391b238a163ae2f1449fda806418e64736f6c63430008190033",
        "nonce": "0x5",
        "accessList": []
      },
      "additionalContracts": [],
      "isFixedGasLimit": false
    },
    {
      "hash": "0xe05a1d3e31467c72b567200f01e689fd2b7833c3e577a63d82fbef849bc9262c",
      "transactionType": "CREATE",
      "contractName": null,
      "contractAddress": "0x0165878A594ca255338adfa4d48449f69242Eb8F",
      "function": null,
      "arguments": null,
      "transaction": {
        "type": "0x02",
        "from": "0xf39fd6e51aad88f6f4ce6ab8827279cfffb92266",
        "gas": "0xc94c9",
        "value": "0x0",
        "data": "0x6080604052348015600f57600080fd5b50610a838061001f6000396000f3fe608060405234801561001057600080fd5b506004361061002b5760003560e01c8063fe0d94c114610030575b600080fd5b61004361003e36600461080a565b610057565b604051901515815260200160405180910390f35b60008181527ff1a4d8eab6724b783b75a5c8d6b4a5edac1afaa52adaa7d3c57201451ce8c4006020819052604082207ff1a4d8eab6724b783b75a5c8d6b4a5edac1afaa52adaa7d3c57201451ce8c40254600a82015442916100b891610823565b111561010b5760405162461bcd60e51b815260206004820152601a60248201527f50726f706f73616c206d7573742062652066696e69736865642e00000000000060448201526064015b60405180910390fd5b600181015461015c5760405162461bcd60e51b815260206004820152601960248201527f4e6f20626f647920666f726b7320746f20657865637574652e000000000000006044820152606401610102565b60058101546101b75760405162461bcd60e51b815260206004820152602160248201527f54616c6c79206d75737420626520646f6e65206174206c65617374206f6e63656044820152601760f91b6064820152608401610102565b600081600101826003016002016000815481106101d6576101d6610844565b9060005260206000200154815481106101f1576101f1610844565b9060005260206000209060030201600101905060005b815481101561042357600082828154811061022457610224610844565b906000526020600020906002020160405180604001604052908160008201805461024d9061085a565b80601f01602080910402602001604051908101604052809291908181526020018280546102799061085a565b80156102c65780601f1061029b576101008083540402835291602001916102c6565b820191906000526020600020905b8154815290600101906020018083116102a957829003601f168201915b505050505081526020016001820180546102df9061085a565b80601f016020809104026020016040519081016040528092919081815260200182805461030b9061085a565b80156103585780601f1061032d57610100808354040283529160200191610358565b820191906000526020600020905b81548152906001019060200180831161033b57829003601f168201915b5050505050815250509050600080306001600160a01b031683600001518051906020012084602001516040516020016103929291906108b8565b60408051601f19818403018152908290526103ac916108e9565b600060405180830381855af49150503d80600081146103e7576040519150601f19603f3d011682016040523d82523d6000602084013e6103ec565b606091505b509150915081610418576103ff8161042c565b60405162461bcd60e51b81526004016101029190610905565b505050600101610207565b50505050919050565b6060815160240361045457600061044283610463565b905061044d81610510565b9392505050565b61045d826106ad565b92915050565b600081516000036104b65760405162461bcd60e51b815260206004820152601f60248201527f72657665727465642077697468206e6f206572726f72206d6573736167652e006044820152606401610102565b6004825110156105085760405162461bcd60e51b815260206004820152601d60248201527f4461746120746f6f2073686f727420666f722070616e696320636f64650000006044820152606401610102565b506024015190565b60608160010361055357505060408051808201909152601881527f70616e69633a204469766973696f6e206279207a65726f2e0000000000000000602082015290565b8160110361057a5760405180606001604052806026815260200161094f6026913992915050565b816012036105a1576040518060600160405280602581526020016109d86025913992915050565b816021036105e257505060408051808201909152601f81527f70616e69633a20506f702066726f6d20616e20656d7074792061727261792e00602082015290565b81602203610609576040518060600160405280602c8152602001610a22602c913992915050565b81603103610630576040518060600160405280602581526020016109fd6025913992915050565b81603203610657576040518060600160405280602881526020016109b06028913992915050565b8160410361067e576040518060600160405280603b8152602001610975603b913992915050565b50506040805180820190915260138152722ab735b737bbb7103830b734b19031b7b2329760691b602082015290565b606081516000036107005760405162461bcd60e51b815260206004820152601f60248201527f72657665727465642077697468206e6f206572726f72206d6573736167652e006044820152606401610102565b6044825110156107525760405162461bcd60e51b815260206004820181905260248201527f4461746120746f6f2073686f727420666f722072657665727420726561736f6e6044820152606401610102565b604482015160008167ffffffffffffffff81111561077257610772610938565b6040519080825280601f01601f19166020018201604052801561079c576020820181803683370190505b50905060005b8281101561080257846107b6826044610823565b815181106107c6576107c6610844565b602001015160f81c60f81b8282815181106107e3576107e3610844565b60200101906001600160f81b031916908160001a9053506001016107a2565b509392505050565b60006020828403121561081c57600080fd5b5035919050565b8082018082111561045d57634e487b7160e01b600052601160045260246000fd5b634e487b7160e01b600052603260045260246000fd5b600181811c9082168061086e57607f821691505b60208210810361088e57634e487b7160e01b600052602260045260246000fd5b50919050565b60005b838110156108af578181015183820152602001610897565b50506000910152565b6001600160e01b03198316815281516000906108db816004850160208701610894565b919091016004019392505050565b600082516108fb818460208701610894565b9190910192915050565b6020815260008251806020840152610924816040850160208701610894565b601f01601f19169190910160400192915050565b634e487b7160e01b600052604160045260246000fdfe70616e69633a2041726974686d65746963206f7065726174696f6e20756e646572666c6f772e70616e69633a205a65726f2d696e697469616c697a6564207661726961626c65206f6620696e7465726e616c2066756e6374696f6e20747970652e70616e69633a206172726179206f75742d6f662d626f756e6473206163636573732028307833322970616e69633a2041726974686d65746963206f7065726174696f6e206f766572666c6f772e70616e69633a20416c6c6f636174696f6e206f6620746f6f206d756368206d656d6f72792e70616e69633a204172726179206f72206d656d6f727920616363657373206f7574206f6620626f756e64732ea264697066735822122025ad27227562489c07ccf5406c7574f49215cd7d169cf3c2a1266f9e68bbb3b164736f6c63430008190033",
        "nonce": "0x6",
        "accessList": []
      },
      "additionalContracts": [],
      "isFixedGasLimit": false
    },
    {
      "hash": "0x68fcf93abf3879cb3070674f4e1fa6590d8cd1b6b109a9ec3651f898f8c3942e",
      "transactionType": "CREATE",
      "contractName": null,
      "contractAddress": "0xa513E6E4b8f2a923D98304ec87F64353C4D5C853",
      "function": null,
      "arguments": null,
      "transaction": {
        "type": "0x02",
        "from": "0xf39fd6e51aad88f6f4ce6ab8827279cfffb92266",
        "gas": "0x5dbd1",
        "value": "0x0",
        "data": "0x6080604052348015600f57600080fd5b506104618061001f6000396000f3fe608060405234801561001057600080fd5b506004361061002b5760003560e01c806306f7e36d14610030575b600080fd5b61004361003e3660046102f8565b610057565b604051901515815260200160405180910390f35b60008281527ff1a4d8eab6724b783b75a5c8d6b4a5edac1afaa52adaa7d3c57201451ce8c4006020819052604082207ff1a4d8eab6724b783b75a5c8d6b4a5edac1afaa52adaa7d3c57201451ce8c40254600a8201548693929142916100bd91906103ee565b1080156100cd5750600481015415155b6101395760405162461bcd60e51b815260206004820152603360248201527f436f72726573706f6e64696e672070726f706f73616c206d75737420626520656044820152723c3834b932b21030b732103a30b63634b2b21760691b606482015260840160405180910390fd5b7f2f8cab7d49dc616a0e8eb4e6f8b67d31c656445bf0c9ad5e38bc38d1128dcc0060005b86518110156102665786818151811061017857610178610415565b60200260200101516000015182600001600083856001015461019a91906103ee565b815260208101919091526040016000205586518790829081106101bf576101bf610415565b6020026020010151602001518260000160008385600101546101e191906103ee565b815260200190815260200160002060010160006101000a8154816001600160a01b0302191690836001600160a01b0316021790555086818151811061022857610228610415565b60200260200101516040015182600001600083856001015461024a91906103ee565b815260208101919091526040016000206002015560010161015d565b508551816001015461027891906103ee565b6001909101555091949350505050565b634e487b7160e01b600052604160045260246000fd5b6040516060810167ffffffffffffffff811182821017156102c1576102c1610288565b60405290565b604051601f8201601f1916810167ffffffffffffffff811182821017156102f0576102f0610288565b604052919050565b600080604080848603121561030c57600080fd5b8335925060208085013567ffffffffffffffff8082111561032c57600080fd5b818701915087601f83011261034057600080fd5b81358181111561035257610352610288565b610360848260051b016102c7565b8181528481019250606091820284018501918a83111561037f57600080fd5b938501935b828510156103dd5780858c03121561039c5760008081fd5b6103a461029e565b85358152868601356001600160a01b03811681146103c25760008081fd5b81880152858801358882015284529384019392850192610384565b508096505050505050509250929050565b8082018082111561040f57634e487b7160e01b600052601160045260246000fd5b92915050565b634e487b7160e01b600052603260045260246000fdfea2646970667358221220e98ee7cca2858f415737578059ed9b301ee2a37677992f85acb225f21229b49464736f6c63430008190033",
        "nonce": "0x7",
        "accessList": []
      },
      "additionalContracts": [],
      "isFixedGasLimit": false
    },
    {
      "hash": "0x73f02cb41d00de76e98c2254555034e4393800b462cf19bf2dbb02e9dbc91309",
      "transactionType": "CREATE",
      "contractName": null,
      "contractAddress": "0x2279B7A0a67DB372996a5FaB50D91eAA73d2eBe6",
      "function": null,
      "arguments": null,
      "transaction": {
        "type": "0x02",
        "from": "0xf39fd6e51aad88f6f4ce6ab8827279cfffb92266",
        "gas": "0xa734f",
        "value": "0x0",
        "data": "0x6080604052348015600f57600080fd5b506108938061001f6000396000f3fe608060405234801561001057600080fd5b50600436106100415760003560e01c80635cefc4ad146100465780635ebf4de31461006d57806369c30f0e14610080575b600080fd5b610059610054366004610557565b610093565b604051901515815260200160405180910390f35b61005961007b366004610618565b610185565b61005961008e3660046106bb565b610323565b60008281527ff1a4d8eab6724b783b75a5c8d6b4a5edac1afaa52adaa7d3c57201451ce8c40060208190526040822060008051602061083e83398151915254600a8201548693929142916100e791906106fc565b1080156100f75750600481015415155b61011c5760405162461bcd60e51b815260040161011390610723565b60405180910390fd5b5050825160008051602061083e833981519152555060408201517ff1a4d8eab6724b783b75a5c8d6b4a5edac1afaa52adaa7d3c57201451ce8c404556060909101517ff1a4d8eab6724b783b75a5c8d6b4a5edac1afaa52adaa7d3c57201451ce8c40555919050565b60008281527ff1a4d8eab6724b783b75a5c8d6b4a5edac1afaa52adaa7d3c57201451ce8c40060208190526040822060008051602061083e83398151915254600a8201548693929142916101d991906106fc565b1080156101e95750600481015415155b6102055760405162461bcd60e51b815260040161011390610723565b505082517f67f28ff67f7d7020f2b2ac7c9bd5f2a6dd9f19a9b15d92c4070c4572728ab00380546001600160a01b039283166001600160a01b031990911617905560208401517f67f28ff67f7d7020f2b2ac7c9bd5f2a6dd9f19a9b15d92c4070c4572728ab0045560408401517f67f28ff67f7d7020f2b2ac7c9bd5f2a6dd9f19a9b15d92c4070c4572728ab00580546060870151608088015160a090980151909416600160501b027fffff0000000000000000000000000000000000000000ffffffffffffffffffff63ffffffff988916660100000000000002166601000000000000600160f01b031961ffff9096166401000000000265ffffffffffff1990931698909416979097171792909216179390931790925592915050565b60008281527ff1a4d8eab6724b783b75a5c8d6b4a5edac1afaa52adaa7d3c57201451ce8c40060208190526040822060008051602061083e83398151915254600a82015486939291429161037791906106fc565b1080156103875750600481015415155b6103a35760405162461bcd60e51b815260040161011390610723565b7f67f28ff67f7d7020f2b2ac7c9bd5f2a6dd9f19a9b15d92c4070c4572728ab003546040805163288688f960e21b815290517f67f28ff67f7d7020f2b2ac7c9bd5f2a6dd9f19a9b15d92c4070c4572728ab000926001600160a01b03169163a21a23e491600480830192602092919082900301816000875af115801561042d573d6000803e3d6000fd5b505050506040513d601f19601f820116820180604052508101906104519190610776565b60028201805467ffffffffffffffff9290921667ffffffffffffffff199092168217905560058201546003830154604080516020808201959095528151808203909501855280820191829052630200057560e51b9091526001600160a01b03600160501b909304831693634000aea0936104d29316918b91906044016107a7565b6020604051808303816000875af11580156104f1573d6000803e3d6000fd5b505050506040513d601f19601f82011682018060405250810190610515919061081b565b505050505092915050565b60405160c0810167ffffffffffffffff8111828210171561055157634e487b7160e01b600052604160045260246000fd5b60405290565b60008082840360a081121561056b57600080fd5b833592506080601f198201121561058157600080fd5b506040516080810181811067ffffffffffffffff821117156105b357634e487b7160e01b600052604160045260246000fd5b806040525060208401358152604084013560208201526060840135604082015260808401356060820152809150509250929050565b80356001600160a01b03811681146105ff57600080fd5b919050565b803563ffffffff811681146105ff57600080fd5b60008082840360e081121561062c57600080fd5b8335925060c0601f198201121561064257600080fd5b5061064b610520565b610657602085016105e8565b81526040840135602082015261066f60608501610604565b6040820152608084013561ffff8116811461068957600080fd5b606082015261069a60a08501610604565b60808201526106ab60c085016105e8565b60a0820152809150509250929050565b600080604083850312156106ce57600080fd5b8235915060208301356bffffffffffffffffffffffff811681146106f157600080fd5b809150509250929050565b8082018082111561071d57634e487b7160e01b600052601160045260246000fd5b92915050565b60208082526033908201527f436f72726573706f6e64696e672070726f706f73616c206d75737420626520656040820152723c3834b932b21030b732103a30b63634b2b21760691b606082015260800190565b60006020828403121561078857600080fd5b815167ffffffffffffffff811681146107a057600080fd5b9392505050565b60018060a01b0384168152600060206bffffffffffffffffffffffff8516602084015260606040840152835180606085015260005b818110156107f8578581018301518582016080015282016107dc565b506000608082860101526080601f19601f83011685010192505050949350505050565b60006020828403121561082d57600080fd5b815180151581146107a057600080fdfef1a4d8eab6724b783b75a5c8d6b4a5edac1afaa52adaa7d3c57201451ce8c402a2646970667358221220bd543466776c68c5cd058eb31d1b81ca1c2de933ec0cb121c7386c2b1563d51964736f6c63430008190033",
        "nonce": "0x8",
        "accessList": []
      },
      "additionalContracts": [],
      "isFixedGasLimit": false
    },
    {
      "hash": "0xc0250a414719c784916bee8c974464a4eaa4563726065611b00f26d3650ce90e",
      "transactionType": "CREATE",
      "contractName": null,
      "contractAddress": "0x8A791620dd6260079BF849Dc5567aDC3F2FdC318",
      "function": null,
      "arguments": null,
      "transaction": {
        "type": "0x02",
        "from": "0xf39fd6e51aad88f6f4ce6ab8827279cfffb92266",
        "gas": "0x3a9b0",
        "value": "0x0",
        "data": "0x6080604052348015600f57600080fd5b506102608061001f6000396000f3fe608060405234801561001057600080fd5b506004361061002b5760003560e01c80639f31e87b14610030575b600080fd5b61004361003e366004610194565b610057565b604051901515815260200160405180910390f35b60008281527ff1a4d8eab6724b783b75a5c8d6b4a5edac1afaa52adaa7d3c57201451ce8c4006020819052604082207ff1a4d8eab6724b783b75a5c8d6b4a5edac1afaa52adaa7d3c57201451ce8c40254600a8201548693929142916100bd9190610203565b1080156100cd5750600481015415155b6101395760405162461bcd60e51b815260206004820152603360248201527f436f72726573706f6e64696e672070726f706f73616c206d75737420626520656044820152723c3834b932b21030b732103a30b63634b2b21760691b606482015260840160405180910390fd5b5050915163ed8b6b3160e01b6000527f531151f4103280746205c56419d2c949e0976d9ee39d3c364618181eba5ee5006020527f407f1dc5f228eaa9a3b54bc386d9071862de6fa4bf217a74d65aaa2440a54cab5592915050565b60008082840360408112156101a857600080fd5b833592506020601f19820112156101be57600080fd5b506040516020810181811067ffffffffffffffff821117156101f057634e487b7160e01b600052604160045260246000fd5b6040526020939093013583525092909150565b8082018082111561022457634e487b7160e01b600052601160045260246000fd5b9291505056fea26469706673582212209c5450f4c516ddbf08747399a839f6c50a63224caecdb829f007816027eaba5b64736f6c63430008190033",
        "nonce": "0x9",
        "accessList": []
      },
      "additionalContracts": [],
      "isFixedGasLimit": false
    },
    {
      "hash": "0x82ffa75b1c6aeb73341eeeefc5f2862cb9b2cb03f568baf381d188c80e2dd15f",
      "transactionType": "CREATE",
      "contractName": null,
      "contractAddress": "0x610178dA211FEF7D417bC0e6FeD39F05609AD788",
      "function": null,
      "arguments": null,
      "transaction": {
        "type": "0x02",
        "from": "0xf39fd6e51aad88f6f4ce6ab8827279cfffb92266",
        "gas": "0x4f6f6",
        "value": "0x0",
        "data": "0x6080604052348015600f57600080fd5b506103908061001f6000396000f3fe608060405234801561001057600080fd5b506004361061002b5760003560e01c80639877696714610030575b600080fd5b61004361003e36600461023f565b610057565b604051901515815260200160405180910390f35b60008381527ff1a4d8eab6724b783b75a5c8d6b4a5edac1afaa52adaa7d3c57201451ce8c4006020819052604082207ff1a4d8eab6724b783b75a5c8d6b4a5edac1afaa52adaa7d3c57201451ce8c40254600a8201548793929142916100bd9190610328565b1080156100cd5750600481015415155b6101395760405162461bcd60e51b815260206004820152603360248201527f436f72726573706f6e64696e672070726f706f73616c206d75737420626520656044820152723c3834b932b21030b732103a30b63634b2b21760691b606482015260840160405180910390fd5b60008681527f0a45678f7ac13226a0ead4e3b54db0ab263e1a30cc1ea3f19d7212aea5cd1d00602081815260409092207f0a45678f7ac13226a0ead4e3b54db0ab263e1a30cc1ea3f19d7212aea5cd1d015481558751919290916101a5916001840191908a01906101c9565b506001820180549060006101b883610341565b919050555050505050509392505050565b828054828255906000526020600020908101928215610204579160200282015b828111156102045782518255916020019190600101906101e9565b50610210929150610214565b5090565b5b808211156102105760008155600101610215565b634e487b7160e01b600052604160045260246000fd5b60008060006060848603121561025457600080fd5b833592506020808501359250604085013567ffffffffffffffff8082111561027b57600080fd5b818701915087601f83011261028f57600080fd5b8135818111156102a1576102a1610229565b8060051b604051601f19603f830116810181811085821117156102c6576102c6610229565b60405291825284820192508381018501918a8311156102e457600080fd5b938501935b82851015610302578435845293850193928501926102e9565b8096505050505050509250925092565b634e487b7160e01b600052601160045260246000fd5b8082018082111561033b5761033b610312565b92915050565b60006001820161035357610353610312565b506001019056fea2646970667358221220f327bebf354da4e434f3109e502afaba282595ad15bd8529933c50e786bd49fa64736f6c63430008190033",
        "nonce": "0xa",
        "accessList": []
      },
      "additionalContracts": [],
      "isFixedGasLimit": false
    },
    {
      "hash": "0x74b3068a3b394c898abf934e03314bff8caf913e49b65fdcfa6f1be9f0f37fc3",
      "transactionType": "CREATE",
      "contractName": "TextDAOFacade",
      "contractAddress": "0xB7f8BC63BbcaD18155201308C8f3540b07f84F5e",
      "function": null,
      "arguments": null,
      "transaction": {
        "type": "0x02",
        "from": "0xf39fd6e51aad88f6f4ce6ab8827279cfffb92266",
        "gas": "0x589a5",
        "value": "0x0",
        "data": "0x6080604052348015600f57600080fd5b506104188061001f6000396000f3fe608060405234801561001057600080fd5b50600436106100b45760003560e01c8063bca2007b11610071578063bca2007b14610133578063c5b3644114610141578063dc1ec0e51461014f578063e69b9edc14610141578063ed8b6b31146100ce578063fe0d94c1146100ce57600080fd5b806306f7e36d146100b95780631f9880ab146100ce5780633fc765ad146100df5780634f4a9536146100f15780638124b78e146100ff5780639f46786e1461010d575b600080fd5b6100cc6100c736600461015d565b505050565b005b6100cc6100dc3660046101dc565b50565b6100cc6100ed36600461020d565b5050565b6100cc6100c736600461023a565b6100cc6100dc3660046102a3565b61012161011b3660046102d3565b50600090565b60405190815260200160405180910390f35b6100cc6100dc36600461030e565b6100cc6100ed36600461032a565b6100cc6100c736600461035d565b60008060006040848603121561017257600080fd5b83359250602084013567ffffffffffffffff8082111561019157600080fd5b818601915086601f8301126101a557600080fd5b8135818111156101b457600080fd5b8760206060830285010111156101c957600080fd5b6020830194508093505050509250925092565b6000602082840312156101ee57600080fd5b5035919050565b60006080828403121561020757600080fd5b50919050565b60008060a0838503121561022057600080fd5b8235915061023184602085016101f5565b90509250929050565b60008060006040848603121561024f57600080fd5b83359250602084013567ffffffffffffffff8082111561026e57600080fd5b818601915086601f83011261028257600080fd5b81358181111561029157600080fd5b8760208285010111156101c957600080fd5b6000602082840312156102b557600080fd5b81356001600160a01b03811681146102cc57600080fd5b9392505050565b6000602082840312156102e557600080fd5b813567ffffffffffffffff8111156102fc57600080fd5b8201606081850312156102cc57600080fd5b60006080828403121561032057600080fd5b6102cc83836101f5565b6000806080838503121561033d57600080fd5b823591508360808401111561035157600080fd5b50926020919091019150565b600080600060a0848603121561037257600080fd5b833567ffffffffffffffff8082111561038a57600080fd5b818601915086601f83011261039e57600080fd5b8135818111156103ad57600080fd5b8760208260051b85010111156103c257600080fd5b6020928301955093506103d99187915086016101f5565b9050925092509256fea264697066735822122086732447b4dd0b5194c2cbf01618e1d5d9b7b32fae37cce065016288f7a30dac64736f6c63430008190033",
        "nonce": "0xb",
        "accessList": []
      },
      "additionalContracts": [],
      "isFixedGasLimit": false
    },
    {
      "hash": "0xfe1b7f65e495cfa165541d5e90921e986d4974a216ba5904ead635d23b336903",
      "transactionType": "CREATE",
      "contractName": "DictionaryEtherscan",
      "contractAddress": "0xA51c1fc2f0D1a1b8494Ed1FE312d7C3a78Ed91C0",
      "function": null,
      "arguments": [
        "0xf39Fd6e51aad88F6F4ce6aB8827279cffFb92266"
      ],
      "transaction": {
        "type": "0x02",
        "from": "0xf39fd6e51aad88f6f4ce6ab8827279cfffb92266",
        "gas": "0x9ba9b",
        "value": "0x0",
        "data": "0x608060405234801561001057600080fd5b5060405161086538038061086583398101604081905261002f916100be565b806001600160a01b03811661005e57604051631e4fbdf760e01b81526000600482015260240160405180910390fd5b6100678161006e565b50506100ee565b600080546001600160a01b038381166001600160a01b0319831681178455604051919092169283917f8be0079c531659141344cd1fd0a4f28419497f9722a3daafe3b4186f6b6457e09190a35050565b6000602082840312156100d057600080fd5b81516001600160a01b03811681146100e757600080fd5b9392505050565b610768806100fd6000396000f3fe608060405234801561001057600080fd5b50600436106100935760003560e01c8063715018a611610066578063715018a61461015b5780638da5cb5b14610163578063a5954dd714610174578063dc9cc64514610189578063f2fde38b1461019c57600080fd5b806301ffc9a7146100985780630815f6fd146100ef5780635c60da1b14610104578063651dc03d14610148575b600080fd5b6100da6100a6366004610627565b6001600160e01b031916600090815260008051602061071383398151915260205260409020546001600160a01b0316151590565b60405190151581526020015b60405180910390f35b6101026100fd366004610660565b6101af565b005b7fd424c1b3bfd5781617f3695d486e7148fd014445395370f20b6d677270905d1a546001600160a01b03165b6040516001600160a01b0390911681526020016100e6565b610102610156366004610693565b6103c6565b610102610442565b6000546001600160a01b0316610130565b61017c610456565b6040516100e691906106ae565b610130610197366004610627565b6104eb565b6101026101aa366004610693565b61054b565b6101b7610589565b806001600160a01b03163b6000036101f257604051630c76093760e01b81526001600160a01b03821660048201526024015b60405180910390fd5b60008060008051602061071383398151915260010180548060200260200160405190810160405280929190818152602001828054801561027e57602002820191906000526020600020906000905b82829054906101000a900460e01b6001600160e01b031916815260200190600401906020826003010492830192600103820291508084116102405790505b5050505050905060005b81518110156102d2578181815181106102a3576102a36106fc565b60200260200101516001600160e01b031916856001600160e01b031916036102ca57600192505b600101610288565b5081610355577fcdc329e8b4857917c1bb59ba644ac6f66cbd0414702204e909f5bbd240d25f2780546001810182556000919091527f309d561497b8471a99ab5ad7e51951a27ec178a175c964e744b12a037ce2b1d66008820401805463ffffffff60079093166004026101000a928302191660e087901c929092029190911790555b6001600160e01b031984166000818152600080516020610713833981519152602052604080822080546001600160a01b0319166001600160a01b03881690811790915590519092917fda3c8142b3c1d27633026f55bfcb4eeb0b5b8db0daa0a3e10c2213a441722ad191a350505050565b6103ce61058d565b807fd424c1b3bfd5781617f3695d486e7148fd014445395370f20b6d677270905d1a80546001600160a01b0319166001600160a01b0392831617905560405190821681527f159f10d3da077d18f228d52be447d552e7d1892d10f7af8f615658160e3747299060200160405180910390a150565b61044a61058d565b61045460006105ba565b565b60606000805160206107138339815191526001018054806020026020016040519081016040528092919081815260200182805480156104e157602002820191906000526020600020906000905b82829054906101000a900460e01b6001600160e01b031916815260200190600401906020826003010492830192600103820291508084116104a35790505b5050505050905090565b6001600160e01b03198116600090815260008051602061071383398151915260205260408120546001600160a01b0316806105455760405163404ceef760e11b81526001600160e01b0319841660048201526024016101e9565b92915050565b61055361058d565b6001600160a01b03811661057d57604051631e4fbdf760e01b8152600060048201526024016101e9565b610586816105ba565b50565b6104545b6000546001600160a01b031633146104545760405163118cdaa760e01b81523360048201526024016101e9565b600080546001600160a01b038381166001600160a01b0319831681178455604051919092169283917f8be0079c531659141344cd1fd0a4f28419497f9722a3daafe3b4186f6b6457e09190a35050565b80356001600160e01b03198116811461062257600080fd5b919050565b60006020828403121561063957600080fd5b6106428261060a565b9392505050565b80356001600160a01b038116811461062257600080fd5b6000806040838503121561067357600080fd5b61067c8361060a565b915061068a60208401610649565b90509250929050565b6000602082840312156106a557600080fd5b61064282610649565b6020808252825182820181905260009190848201906040850190845b818110156106f05783516001600160e01b031916835292840192918401916001016106ca565b50909695505050505050565b634e487b7160e01b600052603260045260246000fdfecdc329e8b4857917c1bb59ba644ac6f66cbd0414702204e909f5bbd240d25f26a2646970667358221220e57eaf1d17c3453904d7a6b0f39f77e6329c107864847c03d8f868ae50e0e14f64736f6c63430008190033000000000000000000000000f39fd6e51aad88f6f4ce6ab8827279cfffb92266",
        "nonce": "0xc",
        "accessList": []
      },
      "additionalContracts": [],
      "isFixedGasLimit": false
    },
    {
      "hash": "0x3207d8fa522be443c4a73aa828ea26570d85c34177f828cf583a722bbc706ad2",
      "transactionType": "CALL",
      "contractName": "DictionaryEtherscan",
      "contractAddress": "0xA51c1fc2f0D1a1b8494Ed1FE312d7C3a78Ed91C0",
      "function": "implementation()",
      "arguments": [],
      "transaction": {
        "type": "0x02",
        "from": "0xf39fd6e51aad88f6f4ce6ab8827279cfffb92266",
        "to": "0xa51c1fc2f0d1a1b8494ed1fe312d7c3a78ed91c0",
        "gas": "0x7e68",
        "value": "0x0",
        "data": "0x5c60da1b",
        "nonce": "0xd",
        "accessList": []
      },
      "additionalContracts": [],
      "isFixedGasLimit": false
    },
    {
      "hash": "0xd4916c967b79d219d085fe9a705e283004a7cb95d8458f987867cc4c83807117",
      "transactionType": "CALL",
      "contractName": "DictionaryEtherscan",
      "contractAddress": "0xA51c1fc2f0D1a1b8494Ed1FE312d7C3a78Ed91C0",
      "function": "setImplementation(bytes4,address)",
      "arguments": [
        "0x8ca89f7700000000000000000000000000000000000000000000000000000000",
        "0xe7f1725E7734CE288F8367e1Bb143E90bb3F0512"
      ],
      "transaction": {
        "type": "0x02",
        "from": "0xf39fd6e51aad88f6f4ce6ab8827279cfffb92266",
        "to": "0xa51c1fc2f0d1a1b8494ed1fe312d7c3a78ed91c0",
        "gas": "0x202ec",
        "value": "0x0",
        "data": "0x0815f6fd8ca89f7700000000000000000000000000000000000000000000000000000000000000000000000000000000e7f1725e7734ce288f8367e1bb143e90bb3f0512",
        "nonce": "0xe",
        "accessList": []
      },
      "additionalContracts": [],
      "isFixedGasLimit": false
    },
    {
      "hash": "0x9e3ba1f635655898a6ae4dd582c31dd6e0dfef7584cee17274e2f0b4c07e96f8",
      "transactionType": "CALL",
      "contractName": "DictionaryEtherscan",
      "contractAddress": "0xA51c1fc2f0D1a1b8494Ed1FE312d7C3a78Ed91C0",
      "function": "implementation()",
      "arguments": [],
      "transaction": {
        "type": "0x02",
        "from": "0xf39fd6e51aad88f6f4ce6ab8827279cfffb92266",
        "to": "0xa51c1fc2f0d1a1b8494ed1fe312d7c3a78ed91c0",
        "gas": "0x7e68",
        "value": "0x0",
        "data": "0x5c60da1b",
        "nonce": "0xf",
        "accessList": []
      },
      "additionalContracts": [],
      "isFixedGasLimit": false
    },
    {
      "hash": "0x1b6a0b6272f841358372d511b9c8070fc4d991a94c45eb319b119e0da6b63c1f",
      "transactionType": "CALL",
      "contractName": "DictionaryEtherscan",
      "contractAddress": "0xA51c1fc2f0D1a1b8494Ed1FE312d7C3a78Ed91C0",
      "function": "setImplementation(bytes4,address)",
      "arguments": [
        "0xdc1ec0e500000000000000000000000000000000000000000000000000000000",
        "0x9fE46736679d2D9a65F0992F2272dE9f3c7fa6e0"
      ],
      "transaction": {
        "type": "0x02",
        "from": "0xf39fd6e51aad88f6f4ce6ab8827279cfffb92266",
        "to": "0xa51c1fc2f0d1a1b8494ed1fe312d7c3a78ed91c0",
        "gas": "0x160f9",
        "value": "0x0",
        "data": "0x0815f6fddc1ec0e5000000000000000000000000000000000000000000000000000000000000000000000000000000009fe46736679d2d9a65f0992f2272de9f3c7fa6e0",
        "nonce": "0x10",
        "accessList": []
      },
      "additionalContracts": [],
      "isFixedGasLimit": false
    },
    {
      "hash": "0x01080c19a0962eab7cba1a0e1714f61ba4a2fef6f98342565d1ea7a97f17259e",
      "transactionType": "CALL",
      "contractName": "DictionaryEtherscan",
      "contractAddress": "0xA51c1fc2f0D1a1b8494Ed1FE312d7C3a78Ed91C0",
      "function": "implementation()",
      "arguments": [],
      "transaction": {
        "type": "0x02",
        "from": "0xf39fd6e51aad88f6f4ce6ab8827279cfffb92266",
        "to": "0xa51c1fc2f0d1a1b8494ed1fe312d7c3a78ed91c0",
        "gas": "0x7e68",
        "value": "0x0",
        "data": "0x5c60da1b",
        "nonce": "0x11",
        "accessList": []
      },
      "additionalContracts": [],
      "isFixedGasLimit": false
    },
    {
      "hash": "0x43ffcbe52314525f827f6bb9068b1231bebdaee6fe6a31a24fcb7c66d1847a69",
      "transactionType": "CALL",
      "contractName": "DictionaryEtherscan",
      "contractAddress": "0xA51c1fc2f0D1a1b8494Ed1FE312d7C3a78Ed91C0",
      "function": "setImplementation(bytes4,address)",
      "arguments": [
        "0x9f46786e00000000000000000000000000000000000000000000000000000000",
        "0xCf7Ed3AccA5a467e9e704C703E8D87F634fB0Fc9"
      ],
      "transaction": {
        "type": "0x02",
        "from": "0xf39fd6e51aad88f6f4ce6ab8827279cfffb92266",
        "to": "0xa51c1fc2f0d1a1b8494ed1fe312d7c3a78ed91c0",
        "gas": "0x14fe3",
        "value": "0x0",
        "data": "0x0815f6fd9f46786e00000000000000000000000000000000000000000000000000000000000000000000000000000000cf7ed3acca5a467e9e704c703e8d87f634fb0fc9",
        "nonce": "0x12",
        "accessList": []
      },
      "additionalContracts": [],
      "isFixedGasLimit": false
    },
    {
      "hash": "0xe049d8f8806988cd365fe9665be5313bb9b53e633e367ad25bb04cadef437565",
      "transactionType": "CALL",
      "contractName": "DictionaryEtherscan",
      "contractAddress": "0xA51c1fc2f0D1a1b8494Ed1FE312d7C3a78Ed91C0",
      "function": "implementation()",
      "arguments": [],
      "transaction": {
        "type": "0x02",
        "from": "0xf39fd6e51aad88f6f4ce6ab8827279cfffb92266",
        "to": "0xa51c1fc2f0d1a1b8494ed1fe312d7c3a78ed91c0",
        "gas": "0x7e68",
        "value": "0x0",
        "data": "0x5c60da1b",
        "nonce": "0x13",
        "accessList": []
      },
      "additionalContracts": [],
      "isFixedGasLimit": false
    },
    {
      "hash": "0xc48e95842a4c65fbb3ed64874a2ef41db5a87e4eceee9ed4d0dfdb1972534c85",
      "transactionType": "CALL",
      "contractName": "DictionaryEtherscan",
      "contractAddress": "0xA51c1fc2f0D1a1b8494Ed1FE312d7C3a78Ed91C0",
      "function": "setImplementation(bytes4,address)",
      "arguments": [
        "0x603d9eb700000000000000000000000000000000000000000000000000000000",
        "0xDc64a140Aa3E981100a9becA4E685f962f0cF6C9"
      ],
      "transaction": {
        "type": "0x02",
        "from": "0xf39fd6e51aad88f6f4ce6ab8827279cfffb92266",
        "to": "0xa51c1fc2f0d1a1b8494ed1fe312d7c3a78ed91c0",
        "gas": "0x15259",
        "value": "0x0",
        "data": "0x0815f6fd603d9eb700000000000000000000000000000000000000000000000000000000000000000000000000000000dc64a140aa3e981100a9beca4e685f962f0cf6c9",
        "nonce": "0x14",
        "accessList": []
      },
      "additionalContracts": [],
      "isFixedGasLimit": false
    },
    {
      "hash": "0x2045ae9337da4c051b1201f624231b42c8a9d9dc7005c7d5c7830e7d3913fb4e",
      "transactionType": "CALL",
      "contractName": "DictionaryEtherscan",
      "contractAddress": "0xA51c1fc2f0D1a1b8494Ed1FE312d7C3a78Ed91C0",
      "function": "implementation()",
      "arguments": [],
      "transaction": {
        "type": "0x02",
        "from": "0xf39fd6e51aad88f6f4ce6ab8827279cfffb92266",
        "to": "0xa51c1fc2f0d1a1b8494ed1fe312d7c3a78ed91c0",
        "gas": "0x7e68",
        "value": "0x0",
        "data": "0x5c60da1b",
        "nonce": "0x15",
        "accessList": []
      },
      "additionalContracts": [],
      "isFixedGasLimit": false
    },
    {
      "hash": "0xe30afd402fe20244308de0e43d559762fce81358a837b6684377f4f209dda15c",
      "transactionType": "CALL",
      "contractName": "DictionaryEtherscan",
      "contractAddress": "0xA51c1fc2f0D1a1b8494Ed1FE312d7C3a78Ed91C0",
      "function": "setImplementation(bytes4,address)",
      "arguments": [
        "0xc5b3644100000000000000000000000000000000000000000000000000000000",
        "0x5FbDB2315678afecb367f032d93F642f64180aa3"
      ],
      "transaction": {
        "type": "0x02",
        "from": "0xf39fd6e51aad88f6f4ce6ab8827279cfffb92266",
        "to": "0xa51c1fc2f0d1a1b8494ed1fe312d7c3a78ed91c0",
        "gas": "0x154f0",
        "value": "0x0",
        "data": "0x0815f6fdc5b36441000000000000000000000000000000000000000000000000000000000000000000000000000000005fbdb2315678afecb367f032d93f642f64180aa3",
        "nonce": "0x16",
        "accessList": []
      },
      "additionalContracts": [],
      "isFixedGasLimit": false
    },
    {
      "hash": "0x201430c4e984f5058944eb516004976627219334d4c53b58db1f162ded486696",
      "transactionType": "CALL",
      "contractName": "DictionaryEtherscan",
      "contractAddress": "0xA51c1fc2f0D1a1b8494Ed1FE312d7C3a78Ed91C0",
      "function": "implementation()",
      "arguments": [],
      "transaction": {
        "type": "0x02",
        "from": "0xf39fd6e51aad88f6f4ce6ab8827279cfffb92266",
        "to": "0xa51c1fc2f0d1a1b8494ed1fe312d7c3a78ed91c0",
        "gas": "0x7e68",
        "value": "0x0",
        "data": "0x5c60da1b",
        "nonce": "0x17",
        "accessList": []
      },
      "additionalContracts": [],
      "isFixedGasLimit": false
    },
    {
      "hash": "0xab102851b0eeb4bd8138c13dbb7618ccf8c6724981cb6c3bafbb27fa938ef559",
      "transactionType": "CALL",
      "contractName": "DictionaryEtherscan",
      "contractAddress": "0xA51c1fc2f0D1a1b8494Ed1FE312d7C3a78Ed91C0",
      "function": "setImplementation(bytes4,address)",
      "arguments": [
        "0xe69b9edc00000000000000000000000000000000000000000000000000000000",
        "0x5FbDB2315678afecb367f032d93F642f64180aa3"
      ],
      "transaction": {
        "type": "0x02",
        "from": "0xf39fd6e51aad88f6f4ce6ab8827279cfffb92266",
        "to": "0xa51c1fc2f0d1a1b8494ed1fe312d7c3a78ed91c0",
        "gas": "0x16bab",
        "value": "0x0",
        "data": "0x0815f6fde69b9edc000000000000000000000000000000000000000000000000000000000000000000000000000000005fbdb2315678afecb367f032d93f642f64180aa3",
        "nonce": "0x18",
        "accessList": []
      },
      "additionalContracts": [],
      "isFixedGasLimit": false
    },
    {
      "hash": "0x20fb175d000e61196d9c2bab9024ab17cd48c69d32715900cd725436cb91622a",
      "transactionType": "CALL",
      "contractName": "DictionaryEtherscan",
      "contractAddress": "0xA51c1fc2f0D1a1b8494Ed1FE312d7C3a78Ed91C0",
      "function": "implementation()",
      "arguments": [],
      "transaction": {
        "type": "0x02",
        "from": "0xf39fd6e51aad88f6f4ce6ab8827279cfffb92266",
        "to": "0xa51c1fc2f0d1a1b8494ed1fe312d7c3a78ed91c0",
        "gas": "0x7e68",
        "value": "0x0",
        "data": "0x5c60da1b",
        "nonce": "0x19",
        "accessList": []
      },
      "additionalContracts": [],
      "isFixedGasLimit": false
    },
    {
      "hash": "0x822cdcdcd5ef1aa4b2ab57f997054ba435bb6c761ec494127dba788488458845",
      "transactionType": "CALL",
      "contractName": "DictionaryEtherscan",
      "contractAddress": "0xA51c1fc2f0D1a1b8494Ed1FE312d7C3a78Ed91C0",
      "function": "setImplementation(bytes4,address)",
      "arguments": [
        "0xed8b6b3100000000000000000000000000000000000000000000000000000000",
        "0x5FC8d32690cc91D4c39d9d3abcBD16989F875707"
      ],
      "transaction": {
        "type": "0x02",
        "from": "0xf39fd6e51aad88f6f4ce6ab8827279cfffb92266",
        "to": "0xa51c1fc2f0d1a1b8494ed1fe312d7c3a78ed91c0",
        "gas": "0x159fc",
        "value": "0x0",
        "data": "0x0815f6fded8b6b31000000000000000000000000000000000000000000000000000000000000000000000000000000005fc8d32690cc91d4c39d9d3abcbd16989f875707",
        "nonce": "0x1a",
        "accessList": []
      },
      "additionalContracts": [],
      "isFixedGasLimit": false
    },
    {
      "hash": "0x641198259ae566c954de32c1a4a8cb1e00bf101840fd40fa20dd3d18710ef8ba",
      "transactionType": "CALL",
      "contractName": "DictionaryEtherscan",
      "contractAddress": "0xA51c1fc2f0D1a1b8494Ed1FE312d7C3a78Ed91C0",
      "function": "implementation()",
      "arguments": [],
      "transaction": {
        "type": "0x02",
        "from": "0xf39fd6e51aad88f6f4ce6ab8827279cfffb92266",
        "to": "0xa51c1fc2f0d1a1b8494ed1fe312d7c3a78ed91c0",
        "gas": "0x7e68",
        "value": "0x0",
        "data": "0x5c60da1b",
        "nonce": "0x1b",
        "accessList": []
      },
      "additionalContracts": [],
      "isFixedGasLimit": false
    },
    {
      "hash": "0x69de6423d3b3e8e3e31a856ce67adba8ae06ec259e624f4fd094b2b40c1069a4",
      "transactionType": "CALL",
      "contractName": "DictionaryEtherscan",
      "contractAddress": "0xA51c1fc2f0D1a1b8494Ed1FE312d7C3a78Ed91C0",
      "function": "setImplementation(bytes4,address)",
      "arguments": [
        "0xfe0d94c100000000000000000000000000000000000000000000000000000000",
        "0x0165878A594ca255338adfa4d48449f69242Eb8F"
      ],
      "transaction": {
        "type": "0x02",
        "from": "0xf39fd6e51aad88f6f4ce6ab8827279cfffb92266",
        "to": "0xa51c1fc2f0d1a1b8494ed1fe312d7c3a78ed91c0",
        "gas": "0x17104",
        "value": "0x0",
        "data": "0x0815f6fdfe0d94c1000000000000000000000000000000000000000000000000000000000000000000000000000000000165878a594ca255338adfa4d48449f69242eb8f",
        "nonce": "0x1c",
        "accessList": []
      },
      "additionalContracts": [],
      "isFixedGasLimit": false
    },
    {
      "hash": "0x77dba594c98d027a95b54d615f523624b2a05824bdf331c2a98f1a1c423f20b3",
      "transactionType": "CALL",
      "contractName": "DictionaryEtherscan",
      "contractAddress": "0xA51c1fc2f0D1a1b8494Ed1FE312d7C3a78Ed91C0",
      "function": "implementation()",
      "arguments": [],
      "transaction": {
        "type": "0x02",
        "from": "0xf39fd6e51aad88f6f4ce6ab8827279cfffb92266",
        "to": "0xa51c1fc2f0d1a1b8494ed1fe312d7c3a78ed91c0",
        "gas": "0x7e68",
        "value": "0x0",
        "data": "0x5c60da1b",
        "nonce": "0x1d",
        "accessList": []
      },
      "additionalContracts": [],
      "isFixedGasLimit": false
    },
    {
      "hash": "0x7aadc1d886576b9800fd220304aff39d2b7cea4fb525180fc031b6e1191bea05",
      "transactionType": "CALL",
      "contractName": "DictionaryEtherscan",
      "contractAddress": "0xA51c1fc2f0D1a1b8494Ed1FE312d7C3a78Ed91C0",
      "function": "setImplementation(bytes4,address)",
      "arguments": [
        "0x06f7e36d00000000000000000000000000000000000000000000000000000000",
        "0xa513E6E4b8f2a923D98304ec87F64353C4D5C853"
      ],
      "transaction": {
        "type": "0x02",
        "from": "0xf39fd6e51aad88f6f4ce6ab8827279cfffb92266",
        "to": "0xa51c1fc2f0d1a1b8494ed1fe312d7c3a78ed91c0",
        "gas": "0x1c5d3",
        "value": "0x0",
        "data": "0x0815f6fd06f7e36d00000000000000000000000000000000000000000000000000000000000000000000000000000000a513e6e4b8f2a923d98304ec87f64353c4d5c853",
        "nonce": "0x1e",
        "accessList": []
      },
      "additionalContracts": [],
      "isFixedGasLimit": false
    },
    {
      "hash": "0xa74b1ea17d529f33c8ef0eea325212aa953fb243a88c7bcb20c6c1496414fe3d",
      "transactionType": "CALL",
      "contractName": "DictionaryEtherscan",
      "contractAddress": "0xA51c1fc2f0D1a1b8494Ed1FE312d7C3a78Ed91C0",
      "function": "implementation()",
      "arguments": [],
      "transaction": {
        "type": "0x02",
        "from": "0xf39fd6e51aad88f6f4ce6ab8827279cfffb92266",
        "to": "0xa51c1fc2f0d1a1b8494ed1fe312d7c3a78ed91c0",
        "gas": "0x7e68",
        "value": "0x0",
        "data": "0x5c60da1b",
        "nonce": "0x1f",
        "accessList": []
      },
      "additionalContracts": [],
      "isFixedGasLimit": false
    },
    {
      "hash": "0x974227362a218017475237c95818a6ae3143e45dc96ab77246c94af8c790b971",
      "transactionType": "CALL",
      "contractName": "DictionaryEtherscan",
      "contractAddress": "0xA51c1fc2f0D1a1b8494Ed1FE312d7C3a78Ed91C0",
      "function": "setImplementation(bytes4,address)",
      "arguments": [
        "0x5cefc4ad00000000000000000000000000000000000000000000000000000000",
        "0x2279B7A0a67DB372996a5FaB50D91eAA73d2eBe6"
      ],
      "transaction": {
        "type": "0x02",
        "from": "0xf39fd6e51aad88f6f4ce6ab8827279cfffb92266",
        "to": "0xa51c1fc2f0d1a1b8494ed1fe312d7c3a78ed91c0",
        "gas": "0x16c16",
        "value": "0x0",
        "data": "0x0815f6fd5cefc4ad000000000000000000000000000000000000000000000000000000000000000000000000000000002279b7a0a67db372996a5fab50d91eaa73d2ebe6",
        "nonce": "0x20",
        "accessList": []
      },
      "additionalContracts": [],
      "isFixedGasLimit": false
    },
    {
      "hash": "0xbaf40bc53ccf9ffabbb3b4a8924bd21a590cf55999cfcf133d14a27e9d1f10f7",
      "transactionType": "CALL",
      "contractName": "DictionaryEtherscan",
      "contractAddress": "0xA51c1fc2f0D1a1b8494Ed1FE312d7C3a78Ed91C0",
      "function": "implementation()",
      "arguments": [],
      "transaction": {
        "type": "0x02",
        "from": "0xf39fd6e51aad88f6f4ce6ab8827279cfffb92266",
        "to": "0xa51c1fc2f0d1a1b8494ed1fe312d7c3a78ed91c0",
        "gas": "0x7e68",
        "value": "0x0",
        "data": "0x5c60da1b",
        "nonce": "0x21",
        "accessList": []
      },
      "additionalContracts": [],
      "isFixedGasLimit": false
    },
    {
      "hash": "0x2bf60082cb770048feba55fe3a94fef07705200b6fa255a45fafabcef3cb31af",
      "transactionType": "CALL",
      "contractName": "DictionaryEtherscan",
      "contractAddress": "0xA51c1fc2f0D1a1b8494Ed1FE312d7C3a78Ed91C0",
      "function": "setImplementation(bytes4,address)",
      "arguments": [
        "0x9f31e87b00000000000000000000000000000000000000000000000000000000",
        "0x8A791620dd6260079BF849Dc5567aDC3F2FdC318"
      ],
      "transaction": {
        "type": "0x02",
        "from": "0xf39fd6e51aad88f6f4ce6ab8827279cfffb92266",
        "to": "0xa51c1fc2f0d1a1b8494ed1fe312d7c3a78ed91c0",
        "gas": "0x16e9c",
        "value": "0x0",
        "data": "0x0815f6fd9f31e87b000000000000000000000000000000000000000000000000000000000000000000000000000000008a791620dd6260079bf849dc5567adc3f2fdc318",
        "nonce": "0x22",
        "accessList": []
      },
      "additionalContracts": [],
      "isFixedGasLimit": false
    },
    {
      "hash": "0xe615e4d804e34c0cb6e434e70fefb4465e5212cb48098e4bf1a150a88ec9aa60",
      "transactionType": "CALL",
      "contractName": "DictionaryEtherscan",
      "contractAddress": "0xA51c1fc2f0D1a1b8494Ed1FE312d7C3a78Ed91C0",
      "function": "implementation()",
      "arguments": [],
      "transaction": {
        "type": "0x02",
        "from": "0xf39fd6e51aad88f6f4ce6ab8827279cfffb92266",
        "to": "0xa51c1fc2f0d1a1b8494ed1fe312d7c3a78ed91c0",
        "gas": "0x7e68",
        "value": "0x0",
        "data": "0x5c60da1b",
        "nonce": "0x23",
        "accessList": []
      },
      "additionalContracts": [],
      "isFixedGasLimit": false
    },
    {
      "hash": "0x95cac089c0101571faa94ef7f79901f81846175afed0eb7ba1500f11195e6cc1",
      "transactionType": "CALL",
      "contractName": "DictionaryEtherscan",
      "contractAddress": "0xA51c1fc2f0D1a1b8494Ed1FE312d7C3a78Ed91C0",
      "function": "setImplementation(bytes4,address)",
      "arguments": [
        "0x9877696700000000000000000000000000000000000000000000000000000000",
        "0x610178dA211FEF7D417bC0e6FeD39F05609AD788"
      ],
      "transaction": {
        "type": "0x02",
        "from": "0xf39fd6e51aad88f6f4ce6ab8827279cfffb92266",
        "to": "0xa51c1fc2f0d1a1b8494ed1fe312d7c3a78ed91c0",
        "gas": "0x17123",
        "value": "0x0",
        "data": "0x0815f6fd9877696700000000000000000000000000000000000000000000000000000000000000000000000000000000610178da211fef7d417bc0e6fed39f05609ad788",
        "nonce": "0x24",
        "accessList": []
      },
      "additionalContracts": [],
      "isFixedGasLimit": false
    },
    {
      "hash": "0xfda3394b34492485842523649e638d851b5a29d2c3bf2b53f3c8519e96ba272f",
      "transactionType": "CALL",
      "contractName": "DictionaryEtherscan",
      "contractAddress": "0xA51c1fc2f0D1a1b8494Ed1FE312d7C3a78Ed91C0",
      "function": "implementation()",
      "arguments": [],
      "transaction": {
        "type": "0x02",
        "from": "0xf39fd6e51aad88f6f4ce6ab8827279cfffb92266",
        "to": "0xa51c1fc2f0d1a1b8494ed1fe312d7c3a78ed91c0",
        "gas": "0x7e68",
        "value": "0x0",
        "data": "0x5c60da1b",
        "nonce": "0x25",
        "accessList": []
      },
      "additionalContracts": [],
      "isFixedGasLimit": false
    },
    {
      "hash": "0x8d91c03dda011af4022241a0d5f0309b62c8c8da625297601dcaaba4d9feca42",
      "transactionType": "CREATE",
      "contractName": "ERC7546ProxyEtherscan",
      "contractAddress": "0x95401dc811bb5740090279Ba06cfA8fcF6113778",
      "function": null,
      "arguments": [
        "0xA51c1fc2f0D1a1b8494Ed1FE312d7C3a78Ed91C0",
        "0x"
      ],
      "transaction": {
        "type": "0x02",
        "from": "0xf39fd6e51aad88f6f4ce6ab8827279cfffb92266",
        "gas": "0x3ef90",
        "value": "0x0",
        "data": "0x608060405260405161062338038061062383398101604081905261002291610387565b818161002e8282610041565b5061003a905082610119565b50506104b5565b61004a82610182565b6040516001600160a01b038316907fa657f2ad315cf3bb35cf1964158da75c3f334481df05a4a1644b2376b17a59b290600090a280511561010d576101086001600160a01b03831663dc9cc6456100a084610447565b6040516001600160e01b031960e084901b81168252919091166004820152602401602060405180830381865afa1580156100de573d6000803e3d6000fd5b505050506040513d601f19601f82011682018060405250810190610102919061047e565b82610211565b505050565b610115610288565b5050565b7fa3f0ad74e5423aebfd80d3ef4346578335a9a72aeaee59ff6cb3582b35133d5080546001600160a01b0319166001600160a01b0383169081179091556040517f1cf3b03a6cf19fa2baba4df148e9dcabedea7f8a5c07840e207e5c089be95d3e90600090a250565b806001600160a01b03163b6000036101d05760405162461bcd60e51b815260206004820152600c60248201526b1393d397d0d3d395149050d560a21b60448201526064015b60405180910390fd5b7f267691be3525af8a813d30db0c9e2bad08f63baecf6dceb85e2cf3676cff56f480546001600160a01b0319166001600160a01b0392909216919091179055565b6060600080846001600160a01b03168460405161022e9190610499565b600060405180830381855af49150503d8060008114610269576040519150601f19603f3d011682016040523d82523d6000602084013e61026e565b606091505b50909250905061027f8583836102a9565b95945050505050565b34156102a75760405163b398979f60e01b815260040160405180910390fd5b565b6060826102be576102b982610308565b610301565b81511580156102d557506001600160a01b0384163b155b156102fe57604051639996b31560e01b81526001600160a01b03851660048201526024016101c7565b50805b9392505050565b8051156103185780518082602001fd5b604051630a12f52160e11b815260040160405180910390fd5b80516001600160a01b038116811461034857600080fd5b919050565b634e487b7160e01b600052604160045260246000fd5b60005b8381101561037e578181015183820152602001610366565b50506000910152565b6000806040838503121561039a57600080fd5b6103a383610331565b60208401519092506001600160401b03808211156103c057600080fd5b818501915085601f8301126103d457600080fd5b8151818111156103e6576103e661034d565b604051601f8201601f19908116603f0116810190838211818310171561040e5761040e61034d565b8160405282815288602084870101111561042757600080fd5b610438836020830160208801610363565b80955050505050509250929050565b805160208201516001600160e01b031980821692919060048310156104765780818460040360031b1b83161693505b505050919050565b60006020828403121561049057600080fd5b61030182610331565b600082516104ab818460208701610363565b9190910192915050565b61015f806104c46000396000f3fe60806040523661000b57005b610013610015565b005b610025610020610027565b6100d5565b565b600061005a7f267691be3525af8a813d30db0c9e2bad08f63baecf6dceb85e2cf3676cff56f4546001600160a01b031690565b60405163dc9cc64560e01b81526001600160e01b03196000351660048201526001600160a01b03919091169063dc9cc64590602401602060405180830381865afa1580156100ac573d6000803e3d6000fd5b505050506040513d601f19601f820116820180604052508101906100d091906100f9565b905090565b3660008037600080366000845af43d6000803e8080156100f4573d6000f35b3d6000fd5b60006020828403121561010b57600080fd5b81516001600160a01b038116811461012257600080fd5b939250505056fea26469706673582212203304df6836c2c604ba4a6acb8b67f3df28955d452e23f358f7eee2c254d84b1464736f6c63430008190033000000000000000000000000a51c1fc2f0d1a1b8494ed1fe312d7c3a78ed91c000000000000000000000000000000000000000000000000000000000000000400000000000000000000000000000000000000000000000000000000000000000",
        "nonce": "0x26",
        "accessList": []
      },
      "additionalContracts": [],
      "isFixedGasLimit": false
    }
  ],
  "receipts": [
    {
      "transactionHash": "0x48b6fe183e54fb30e9c1f0c0ed679e96c11a67e58228968456ce07683ff9eef4",
      "transactionIndex": "0x0",
      "blockHash": "0x43a884fd3f17378f4065750d548ed7ca2b0b138c8dfa387484a8e0175660e4d1",
      "blockNumber": "0x1",
      "from": "0xf39Fd6e51aad88F6F4ce6aB8827279cffFb92266",
      "to": null,
      "cumulativeGasUsed": "0x570d8",
      "gasUsed": "0x570d8",
      "contractAddress": "0x5FbDB2315678afecb367f032d93F642f64180aa3",
      "logs": [],
      "status": "0x1",
      "logsBloom": "0x00000000000000000000000000000000000000000000000000000000000000000000000000000000000000000000000000000000000000000000000000000000000000000000000000000000000000000000000000000000000000000000000000000000000000000000000000000000000000000000000000000000000000000000000000000000000000000000000000000000000000000000000000000000000000000000000000000000000000000000000000000000000000000000000000000000000000000000000000000000000000000000000000000000000000000000000000000000000000000000000000000000000000000000000000000000",
      "type": "0x2",
      "effectiveGasPrice": "0xee6b2800"
    },
    {
      "transactionHash": "0xf839682d7b7ed2ffd089c74caba358df5eee95b71635bd2029f481f22766df03",
      "transactionIndex": "0x0",
      "blockHash": "0x159921322edcf260527991899a9554030609a31b6fe4607c5db6a6e97b91e297",
      "blockNumber": "0x2",
      "from": "0xf39Fd6e51aad88F6F4ce6aB8827279cffFb92266",
      "to": null,
      "cumulativeGasUsed": "0x7af1d",
      "gasUsed": "0x7af1d",
      "contractAddress": "0xe7f1725E7734CE288F8367e1Bb143E90bb3F0512",
      "logs": [],
      "status": "0x1",
      "logsBloom": "0x00000000000000000000000000000000000000000000000000000000000000000000000000000000000000000000000000000000000000000000000000000000000000000000000000000000000000000000000000000000000000000000000000000000000000000000000000000000000000000000000000000000000000000000000000000000000000000000000000000000000000000000000000000000000000000000000000000000000000000000000000000000000000000000000000000000000000000000000000000000000000000000000000000000000000000000000000000000000000000000000000000000000000000000000000000000",
      "type": "0x2",
      "effectiveGasPrice": "0xe72525c8"
    },
    {
      "transactionHash": "0xfffb9b5a09aa4348e04b7e4c8abcefa50921f7c8a2898ac297ff863c7724cb89",
      "transactionIndex": "0x1",
      "blockHash": "0x159921322edcf260527991899a9554030609a31b6fe4607c5db6a6e97b91e297",
      "blockNumber": "0x2",
      "from": "0xf39Fd6e51aad88F6F4ce6aB8827279cffFb92266",
      "to": null,
      "cumulativeGasUsed": "0xb91c7",
      "gasUsed": "0xb91c7",
      "contractAddress": "0x9fE46736679d2D9a65F0992F2272dE9f3c7fa6e0",
      "logs": [],
      "status": "0x1",
      "logsBloom": "0x00000000000000000000000000000000000000000000000000000000000000000000000000000000000000000000000000000000000000000000000000000000000000000000000000000000000000000000000000000000000000000000000000000000000000000000000000000000000000000000000000000000000000000000000000000000000000000000000000000000000000000000000000000000000000000000000000000000000000000000000000000000000000000000000000000000000000000000000000000000000000000000000000000000000000000000000000000000000000000000000000000000000000000000000000000000",
      "type": "0x2",
      "effectiveGasPrice": "0xe72525c8"
    },
    {
      "transactionHash": "0x16014057aecd6e8861603bb43d6f97b11edbb7f248975ca7e2ef55ce77fc4529",
      "transactionIndex": "0x0",
      "blockHash": "0xf878d56de2c17e16d25eed6ee4157402556107c548cc7a75119e7dabf4eff34c",
      "blockNumber": "0x3",
      "from": "0xf39Fd6e51aad88F6F4ce6aB8827279cffFb92266",
      "to": null,
      "cumulativeGasUsed": "0xe8f7a",
      "gasUsed": "0xe8f7a",
      "contractAddress": "0xCf7Ed3AccA5a467e9e704C703E8D87F634fB0Fc9",
      "logs": [],
      "status": "0x1",
      "logsBloom": "0x00000000000000000000000000000000000000000000000000000000000000000000000000000000000000000000000000000000000000000000000000000000000000000000000000000000000000000000000000000000000000000000000000000000000000000000000000000000000000000000000000000000000000000000000000000000000000000000000000000000000000000000000000000000000000000000000000000000000000000000000000000000000000000000000000000000000000000000000000000000000000000000000000000000000000000000000000000000000000000000000000000000000000000000000000000000",
      "type": "0x2",
      "effectiveGasPrice": "0xe0ef3271"
    },
    {
      "transactionHash": "0x1fbc6dadc6d9bf41174760d75791d94be9fa6c132bba51b12f39a78a8c11b432",
      "transactionIndex": "0x1",
      "blockHash": "0xf878d56de2c17e16d25eed6ee4157402556107c548cc7a75119e7dabf4eff34c",
      "blockNumber": "0x3",
      "from": "0xf39Fd6e51aad88F6F4ce6aB8827279cffFb92266",
      "to": null,
      "cumulativeGasUsed": "0x1635d7",
      "gasUsed": "0x1635d7",
      "contractAddress": "0xDc64a140Aa3E981100a9becA4E685f962f0cF6C9",
      "logs": [],
      "status": "0x1",
      "logsBloom": "0x00000000000000000000000000000000000000000000000000000000000000000000000000000000000000000000000000000000000000000000000000000000000000000000000000000000000000000000000000000000000000000000000000000000000000000000000000000000000000000000000000000000000000000000000000000000000000000000000000000000000000000000000000000000000000000000000000000000000000000000000000000000000000000000000000000000000000000000000000000000000000000000000000000000000000000000000000000000000000000000000000000000000000000000000000000000",
      "type": "0x2",
      "effectiveGasPrice": "0xe0ef3271"
    },
    {
      "transactionHash": "0xb51ac3aa2ea1e87798f01a967d1c376aa629b9d494ade27460f1635a2f435536",
      "transactionIndex": "0x2",
      "blockHash": "0xf878d56de2c17e16d25eed6ee4157402556107c548cc7a75119e7dabf4eff34c",
      "blockNumber": "0x3",
      "from": "0xf39Fd6e51aad88F6F4ce6aB8827279cffFb92266",
      "to": null,
      "cumulativeGasUsed": "0x2c784d",
      "gasUsed": "0x2c784d",
      "contractAddress": "0x5FC8d32690cc91D4c39d9d3abcBD16989F875707",
      "logs": [],
      "status": "0x1",
      "logsBloom": "0x00000000000000000000000000000000000000000000000000000000000000000000000000000000000000000000000000000000000000000000000000000000000000000000000000000000000000000000000000000000000000000000000000000000000000000000000000000000000000000000000000000000000000000000000000000000000000000000000000000000000000000000000000000000000000000000000000000000000000000000000000000000000000000000000000000000000000000000000000000000000000000000000000000000000000000000000000000000000000000000000000000000000000000000000000000000",
      "type": "0x2",
      "effectiveGasPrice": "0xe0ef3271"
    },
    {
      "transactionHash": "0xe05a1d3e31467c72b567200f01e689fd2b7833c3e577a63d82fbef849bc9262c",
      "transactionIndex": "0x3",
      "blockHash": "0xf878d56de2c17e16d25eed6ee4157402556107c548cc7a75119e7dabf4eff34c",
      "blockNumber": "0x3",
      "from": "0xf39Fd6e51aad88F6F4ce6aB8827279cffFb92266",
      "to": null,
      "cumulativeGasUsed": "0x362680",
      "gasUsed": "0x362680",
      "contractAddress": "0x0165878A594ca255338adfa4d48449f69242Eb8F",
      "logs": [],
      "status": "0x1",
      "logsBloom": "0x00000000000000000000000000000000000000000000000000000000000000000000000000000000000000000000000000000000000000000000000000000000000000000000000000000000000000000000000000000000000000000000000000000000000000000000000000000000000000000000000000000000000000000000000000000000000000000000000000000000000000000000000000000000000000000000000000000000000000000000000000000000000000000000000000000000000000000000000000000000000000000000000000000000000000000000000000000000000000000000000000000000000000000000000000000000",
      "type": "0x2",
      "effectiveGasPrice": "0xe0ef3271"
    },
    {
      "transactionHash": "0x68fcf93abf3879cb3070674f4e1fa6590d8cd1b6b109a9ec3651f898f8c3942e",
      "transactionIndex": "0x4",
      "blockHash": "0xf878d56de2c17e16d25eed6ee4157402556107c548cc7a75119e7dabf4eff34c",
      "blockNumber": "0x3",
      "from": "0xf39Fd6e51aad88F6F4ce6aB8827279cffFb92266",
      "to": null,
      "cumulativeGasUsed": "0x3aa87d",
      "gasUsed": "0x3aa87d",
      "contractAddress": "0xa513E6E4b8f2a923D98304ec87F64353C4D5C853",
      "logs": [],
      "status": "0x1",
      "logsBloom": "0x00000000000000000000000000000000000000000000000000000000000000000000000000000000000000000000000000000000000000000000000000000000000000000000000000000000000000000000000000000000000000000000000000000000000000000000000000000000000000000000000000000000000000000000000000000000000000000000000000000000000000000000000000000000000000000000000000000000000000000000000000000000000000000000000000000000000000000000000000000000000000000000000000000000000000000000000000000000000000000000000000000000000000000000000000000000",
      "type": "0x2",
      "effectiveGasPrice": "0xe0ef3271"
    },
    {
      "transactionHash": "0x73f02cb41d00de76e98c2254555034e4393800b462cf19bf2dbb02e9dbc91309",
      "transactionIndex": "0x0",
      "blockHash": "0x84da4eabef90705c71632b6f9be7540345ced1b6bcdb5a2133d074d76144afd1",
      "blockNumber": "0x5",
      "from": "0xf39Fd6e51aad88F6F4ce6aB8827279cffFb92266",
      "to": null,
      "cumulativeGasUsed": "0x80a7a",
      "gasUsed": "0x80a7a",
      "contractAddress": "0x2279B7A0a67DB372996a5FaB50D91eAA73d2eBe6",
      "logs": [],
      "status": "0x1",
      "logsBloom": "0x00000000000000000000000000000000000000000000000000000000000000000000000000000000000000000000000000000000000000000000000000000000000000000000000000000000000000000000000000000000000000000000000000000000000000000000000000000000000000000000000000000000000000000000000000000000000000000000000000000000000000000000000000000000000000000000000000000000000000000000000000000000000000000000000000000000000000000000000000000000000000000000000000000000000000000000000000000000000000000000000000000000000000000000000000000000",
      "type": "0x2",
      "effectiveGasPrice": "0xd76aed0a"
    },
    {
      "transactionHash": "0xc0250a414719c784916bee8c974464a4eaa4563726065611b00f26d3650ce90e",
      "transactionIndex": "0x0",
      "blockHash": "0xec7a8779054c346dbe7be820fed8507237dd94df69402dcc017768a2274b7d25",
      "blockNumber": "0x6",
      "from": "0xf39Fd6e51aad88F6F4ce6aB8827279cffFb92266",
      "to": null,
      "cumulativeGasUsed": "0x2d175",
      "gasUsed": "0x2d175",
      "contractAddress": "0x8A791620dd6260079BF849Dc5567aDC3F2FdC318",
      "logs": [],
      "status": "0x1",
      "logsBloom": "0x00000000000000000000000000000000000000000000000000000000000000000000000000000000000000000000000000000000000000000000000000000000000000000000000000000000000000000000000000000000000000000000000000000000000000000000000000000000000000000000000000000000000000000000000000000000000000000000000000000000000000000000000000000000000000000000000000000000000000000000000000000000000000000000000000000000000000000000000000000000000000000000000000000000000000000000000000000000000000000000000000000000000000000000000000000000",
      "type": "0x2",
      "effectiveGasPrice": "0xd300c191"
    },
    {
      "transactionHash": "0x82ffa75b1c6aeb73341eeeefc5f2862cb9b2cb03f568baf381d188c80e2dd15f",
      "transactionIndex": "0x0",
      "blockHash": "0x70e9803a3d939e6576f3fc685a3f2c675d9bf55fa0b8b1e6ffe13638b4f298e4",
      "blockNumber": "0x7",
      "from": "0xf39Fd6e51aad88F6F4ce6aB8827279cffFb92266",
      "to": null,
      "cumulativeGasUsed": "0x3d1e6",
      "gasUsed": "0x3d1e6",
      "contractAddress": "0x610178dA211FEF7D417bC0e6FeD39F05609AD788",
      "logs": [],
      "status": "0x1",
      "logsBloom": "0x00000000000000000000000000000000000000000000000000000000000000000000000000000000000000000000000000000000000000000000000000000000000000000000000000000000000000000000000000000000000000000000000000000000000000000000000000000000000000000000000000000000000000000000000000000000000000000000000000000000000000000000000000000000000000000000000000000000000000000000000000000000000000000000000000000000000000000000000000000000000000000000000000000000000000000000000000000000000000000000000000000000000000000000000000000000",
      "type": "0x2",
      "effectiveGasPrice": "0xcf0763ef"
    },
    {
      "transactionHash": "0x74b3068a3b394c898abf934e03314bff8caf913e49b65fdcfa6f1be9f0f37fc3",
      "transactionIndex": "0x1",
      "blockHash": "0x70e9803a3d939e6576f3fc685a3f2c675d9bf55fa0b8b1e6ffe13638b4f298e4",
      "blockNumber": "0x7",
      "from": "0xf39Fd6e51aad88F6F4ce6aB8827279cffFb92266",
      "to": null,
      "cumulativeGasUsed": "0x814a9",
      "gasUsed": "0x814a9",
      "contractAddress": "0xB7f8BC63BbcaD18155201308C8f3540b07f84F5e",
      "logs": [],
      "status": "0x1",
      "logsBloom": "0x00000000000000000000000000000000000000000000000000000000000000000000000000000000000000000000000000000000000000000000000000000000000000000000000000000000000000000000000000000000000000000000000000000000000000000000000000000000000000000000000000000000000000000000000000000000000000000000000000000000000000000000000000000000000000000000000000000000000000000000000000000000000000000000000000000000000000000000000000000000000000000000000000000000000000000000000000000000000000000000000000000000000000000000000000000000",
      "type": "0x2",
      "effectiveGasPrice": "0xcf0763ef"
    },
    {
      "transactionHash": "0xfe1b7f65e495cfa165541d5e90921e986d4974a216ba5904ead635d23b336903",
      "transactionIndex": "0x0",
      "blockHash": "0x129c975ac3a551fb66ce79b5dbe3c2a72085dfad2bb93ae0d2f0fde2d42ee0b3",
      "blockNumber": "0x8",
      "from": "0xf39Fd6e51aad88F6F4ce6aB8827279cffFb92266",
      "to": null,
      "cumulativeGasUsed": "0x77c64",
      "gasUsed": "0x77c64",
      "contractAddress": "0xA51c1fc2f0D1a1b8494Ed1FE312d7C3a78Ed91C0",
      "logs": [
        {
          "address": "0xA51c1fc2f0D1a1b8494Ed1FE312d7C3a78Ed91C0",
          "topics": [
            "0x8be0079c531659141344cd1fd0a4f28419497f9722a3daafe3b4186f6b6457e0",
            "0x0000000000000000000000000000000000000000000000000000000000000000",
            "0x000000000000000000000000f39fd6e51aad88f6f4ce6ab8827279cfffb92266"
          ],
          "data": "0x",
          "blockHash": "0x129c975ac3a551fb66ce79b5dbe3c2a72085dfad2bb93ae0d2f0fde2d42ee0b3",
          "blockNumber": "0x8",
          "transactionHash": "0xfe1b7f65e495cfa165541d5e90921e986d4974a216ba5904ead635d23b336903",
          "transactionIndex": "0x0",
          "logIndex": "0x0",
          "removed": false
        }
      ],
      "status": "0x1",
      "logsBloom": "0x00000000000000000000000000000000000000000000000000800000000000000000000000000000000000000000000000000000000000000000000000000000000000000000000000000000000000000001000000000000000000000000000000000000020000000000000100000800000000000000000000000000000000400000000000000000000000000000000000000000000400000000000000000000000000000000000000000000000000000000000000000000000000000000000000000000000000200000000000000000000000002000000000000000000020000000000000000000000000000002000000000000000000000000400000000000",
      "type": "0x2",
      "effectiveGasPrice": "0xcba06382"
    },
    {
      "transactionHash": "0x3207d8fa522be443c4a73aa828ea26570d85c34177f828cf583a722bbc706ad2",
      "transactionIndex": "0x1",
      "blockHash": "0x129c975ac3a551fb66ce79b5dbe3c2a72085dfad2bb93ae0d2f0fde2d42ee0b3",
      "blockNumber": "0x8",
      "from": "0xf39Fd6e51aad88F6F4ce6aB8827279cffFb92266",
      "to": "0xA51c1fc2f0D1a1b8494Ed1FE312d7C3a78Ed91C0",
      "cumulativeGasUsed": "0x7d7e9",
      "gasUsed": "0x7d7e9",
      "contractAddress": null,
      "logs": [],
      "status": "0x1",
      "logsBloom": "0x00000000000000000000000000000000000000000000000000000000000000000000000000000000000000000000000000000000000000000000000000000000000000000000000000000000000000000000000000000000000000000000000000000000000000000000000000000000000000000000000000000000000000000000000000000000000000000000000000000000000000000000000000000000000000000000000000000000000000000000000000000000000000000000000000000000000000000000000000000000000000000000000000000000000000000000000000000000000000000000000000000000000000000000000000000000",
      "type": "0x2",
      "effectiveGasPrice": "0xcba06382"
    },
    {
      "transactionHash": "0xd4916c967b79d219d085fe9a705e283004a7cb95d8458f987867cc4c83807117",
      "transactionIndex": "0x2",
      "blockHash": "0x129c975ac3a551fb66ce79b5dbe3c2a72085dfad2bb93ae0d2f0fde2d42ee0b3",
      "blockNumber": "0x8",
      "from": "0xf39Fd6e51aad88F6F4ce6aB8827279cffFb92266",
      "to": "0xA51c1fc2f0D1a1b8494Ed1FE312d7C3a78Ed91C0",
      "cumulativeGasUsed": "0x94cb5",
      "gasUsed": "0x94cb5",
      "contractAddress": null,
      "logs": [
        {
          "address": "0xA51c1fc2f0D1a1b8494Ed1FE312d7C3a78Ed91C0",
          "topics": [
            "0xda3c8142b3c1d27633026f55bfcb4eeb0b5b8db0daa0a3e10c2213a441722ad1",
            "0x8ca89f7700000000000000000000000000000000000000000000000000000000",
            "0x000000000000000000000000e7f1725e7734ce288f8367e1bb143e90bb3f0512"
          ],
          "data": "0x",
          "blockHash": "0x129c975ac3a551fb66ce79b5dbe3c2a72085dfad2bb93ae0d2f0fde2d42ee0b3",
          "blockNumber": "0x8",
          "transactionHash": "0xd4916c967b79d219d085fe9a705e283004a7cb95d8458f987867cc4c83807117",
          "transactionIndex": "0x2",
          "logIndex": "0x1",
          "removed": false
        }
      ],
      "status": "0x1",
      "logsBloom": "0x00000000000000000400000000000000000000000000000000000000000000080000000000000000000000000000000000000000000000000000000000000000000000000000000000000000000000000000000000000000000000000000000000000000000000000000000000000000000002000000000010000004000000000000000000000000000000000000100000000000000400000000000000000000000000000000000000000002000000000000000000000000000000000000000000000000000000000000100000000000000000000000000000000000000000000000000000000000000000000202000000000000000000000000400000000000",
      "type": "0x2",
      "effectiveGasPrice": "0xcba06382"
    },
    {
      "transactionHash": "0x9e3ba1f635655898a6ae4dd582c31dd6e0dfef7584cee17274e2f0b4c07e96f8",
      "transactionIndex": "0x0",
      "blockHash": "0xd4754c661e480897f2f213a141a98d8d250c062281c42a53474a30b3756aa07a",
      "blockNumber": "0x9",
      "from": "0xf39Fd6e51aad88F6F4ce6aB8827279cffFb92266",
      "to": "0xA51c1fc2f0D1a1b8494Ed1FE312d7C3a78Ed91C0",
      "cumulativeGasUsed": "0x5b85",
      "gasUsed": "0x5b85",
      "contractAddress": null,
      "logs": [],
      "status": "0x1",
      "logsBloom": "0x00000000000000000000000000000000000000000000000000000000000000000000000000000000000000000000000000000000000000000000000000000000000000000000000000000000000000000000000000000000000000000000000000000000000000000000000000000000000000000000000000000000000000000000000000000000000000000000000000000000000000000000000000000000000000000000000000000000000000000000000000000000000000000000000000000000000000000000000000000000000000000000000000000000000000000000000000000000000000000000000000000000000000000000000000000000",
      "type": "0x2",
      "effectiveGasPrice": "0xc8a6a59d"
    },
    {
      "transactionHash": "0x1b6a0b6272f841358372d511b9c8070fc4d991a94c45eb319b119e0da6b63c1f",
      "transactionIndex": "0x0",
      "blockHash": "0x838872625573eeace4359f4714196bebe3d5b926a0e7a8cc2b19482b4c1d1b33",
      "blockNumber": "0xa",
      "from": "0xf39Fd6e51aad88F6F4ce6aB8827279cffFb92266",
      "to": "0xA51c1fc2f0D1a1b8494Ed1FE312d7C3a78Ed91C0",
      "cumulativeGasUsed": "0xf15a",
      "gasUsed": "0xf15a",
      "contractAddress": null,
      "logs": [
        {
          "address": "0xA51c1fc2f0D1a1b8494Ed1FE312d7C3a78Ed91C0",
          "topics": [
            "0xda3c8142b3c1d27633026f55bfcb4eeb0b5b8db0daa0a3e10c2213a441722ad1",
            "0xdc1ec0e500000000000000000000000000000000000000000000000000000000",
            "0x0000000000000000000000009fe46736679d2d9a65f0992f2272de9f3c7fa6e0"
          ],
          "data": "0x",
          "blockHash": "0x838872625573eeace4359f4714196bebe3d5b926a0e7a8cc2b19482b4c1d1b33",
          "blockNumber": "0xa",
          "transactionHash": "0x1b6a0b6272f841358372d511b9c8070fc4d991a94c45eb319b119e0da6b63c1f",
          "transactionIndex": "0x0",
          "logIndex": "0x0",
          "removed": false
        }
      ],
      "status": "0x1",
      "logsBloom": "0x00000000000000000000000002000000000000000000000000000000000000080000000000000000000400000000000000400000000000000000000000000000000000000000000000000000000000000000000400000000000000000000400000000000000000000000000000000000000000000000000010000000000000000000000000000000000000000000100000000000000400000000000000000000000000000000020000000000000000000000000000000000000000000000000000000000000000000000000000000000000000000000000000000000000000000000000000000000000000000002000000000000000000000000400000000000",
      "type": "0x2",
      "effectiveGasPrice": "0xc5ecf414"
    },
    {
      "transactionHash": "0x01080c19a0962eab7cba1a0e1714f61ba4a2fef6f98342565d1ea7a97f17259e",
      "transactionIndex": "0x0",
      "blockHash": "0x232fe909401bb587d3322ce1ad56fbf730bf779b73cbf8a07a1655440dccf2d9",
      "blockNumber": "0xb",
      "from": "0xf39Fd6e51aad88F6F4ce6aB8827279cffFb92266",
      "to": "0xA51c1fc2f0D1a1b8494Ed1FE312d7C3a78Ed91C0",
      "cumulativeGasUsed": "0x5b85",
      "gasUsed": "0x5b85",
      "contractAddress": null,
      "logs": [],
      "status": "0x1",
      "logsBloom": "0x00000000000000000000000000000000000000000000000000000000000000000000000000000000000000000000000000000000000000000000000000000000000000000000000000000000000000000000000000000000000000000000000000000000000000000000000000000000000000000000000000000000000000000000000000000000000000000000000000000000000000000000000000000000000000000000000000000000000000000000000000000000000000000000000000000000000000000000000000000000000000000000000000000000000000000000000000000000000000000000000000000000000000000000000000000000",
      "type": "0x2",
      "effectiveGasPrice": "0xc38be636"
    },
    {
      "transactionHash": "0x43ffcbe52314525f827f6bb9068b1231bebdaee6fe6a31a24fcb7c66d1847a69",
      "transactionIndex": "0x0",
      "blockHash": "0xabbf1cc6a46ea14afd9b6cecb0dff324c83bcd0d0778f90cc40237e0ff137bc7",
      "blockNumber": "0xc",
      "from": "0xf39Fd6e51aad88F6F4ce6aB8827279cffFb92266",
      "to": "0xA51c1fc2f0D1a1b8494Ed1FE312d7C3a78Ed91C0",
      "cumulativeGasUsed": "0xf32e",
      "gasUsed": "0xf32e",
      "contractAddress": null,
      "logs": [
        {
          "address": "0xA51c1fc2f0D1a1b8494Ed1FE312d7C3a78Ed91C0",
          "topics": [
            "0xda3c8142b3c1d27633026f55bfcb4eeb0b5b8db0daa0a3e10c2213a441722ad1",
            "0x9f46786e00000000000000000000000000000000000000000000000000000000",
            "0x000000000000000000000000cf7ed3acca5a467e9e704c703e8d87f634fb0fc9"
          ],
          "data": "0x",
          "blockHash": "0xabbf1cc6a46ea14afd9b6cecb0dff324c83bcd0d0778f90cc40237e0ff137bc7",
          "blockNumber": "0xc",
          "transactionHash": "0x43ffcbe52314525f827f6bb9068b1231bebdaee6fe6a31a24fcb7c66d1847a69",
          "transactionIndex": "0x0",
          "logIndex": "0x0",
          "removed": false
        }
      ],
      "status": "0x1",
      "logsBloom": "0x00000000000000000000000000000000000000000000000000000000000000080000000000000080000000000400000000000000000000000000000000000000000000000000000000000000000000000000000000000000000000000000000000000000000000000000000000000000000000000000000010000000000000000000000000000000000000000000100000000000000400000000000000000000000000001000000000010000000000000000000000000000000000000000000000000000000000000000000000200000000000000000000000000000000000000000000000000000008000000002000000000000000000000000400000000000",
      "type": "0x2",
      "effectiveGasPrice": "0xc1754b49"
    },
    {
      "transactionHash": "0xe049d8f8806988cd365fe9665be5313bb9b53e633e367ad25bb04cadef437565",
      "transactionIndex": "0x0",
      "blockHash": "0xf96ba539b4e31453e32dfcacd59764f92a5f1ee8aa7a28870f993e371f7bd9b0",
      "blockNumber": "0xd",
      "from": "0xf39Fd6e51aad88F6F4ce6aB8827279cffFb92266",
      "to": "0xA51c1fc2f0D1a1b8494Ed1FE312d7C3a78Ed91C0",
      "cumulativeGasUsed": "0x5b85",
      "gasUsed": "0x5b85",
      "contractAddress": null,
      "logs": [],
      "status": "0x1",
      "logsBloom": "0x00000000000000000000000000000000000000000000000000000000000000000000000000000000000000000000000000000000000000000000000000000000000000000000000000000000000000000000000000000000000000000000000000000000000000000000000000000000000000000000000000000000000000000000000000000000000000000000000000000000000000000000000000000000000000000000000000000000000000000000000000000000000000000000000000000000000000000000000000000000000000000000000000000000000000000000000000000000000000000000000000000000000000000000000000000000",
      "type": "0x2",
      "effectiveGasPrice": "0xbfa29f84"
    },
    {
      "transactionHash": "0xc48e95842a4c65fbb3ed64874a2ef41db5a87e4eceee9ed4d0dfdb1972534c85",
      "transactionIndex": "0x0",
      "blockHash": "0x2928a74a8bd0161689e1a760a5b0e3b4dab0354c3ad91f0e88cf336acf544ab7",
      "blockNumber": "0xe",
      "from": "0xf39Fd6e51aad88F6F4ce6aB8827279cffFb92266",
      "to": "0xA51c1fc2f0D1a1b8494Ed1FE312d7C3a78Ed91C0",
      "cumulativeGasUsed": "0xf4f6",
      "gasUsed": "0xf4f6",
      "contractAddress": null,
      "logs": [
        {
          "address": "0xA51c1fc2f0D1a1b8494Ed1FE312d7C3a78Ed91C0",
          "topics": [
            "0xda3c8142b3c1d27633026f55bfcb4eeb0b5b8db0daa0a3e10c2213a441722ad1",
            "0x603d9eb700000000000000000000000000000000000000000000000000000000",
            "0x000000000000000000000000dc64a140aa3e981100a9beca4e685f962f0cf6c9"
          ],
          "data": "0x",
          "blockHash": "0x2928a74a8bd0161689e1a760a5b0e3b4dab0354c3ad91f0e88cf336acf544ab7",
          "blockNumber": "0xe",
          "transactionHash": "0xc48e95842a4c65fbb3ed64874a2ef41db5a87e4eceee9ed4d0dfdb1972534c85",
          "transactionIndex": "0x0",
          "logIndex": "0x0",
          "removed": false
        }
      ],
      "status": "0x1",
      "logsBloom": "0x00000000000000000000000000000000000000000000000000000000000000080000000000000000400008000000000000000000000000000000000000004000000000000000000000000000000000000000000000000001000000000000000000000000000000000000000000000000000000000000000010000000000000000000000000000000000000000000100000000000000400000000000000000000000000000000000000000000080000000000000000000000000000000000000000000000000000000000000000000000000000000400000000000000000000000000000000000000000000000002000000000000000000000000400000000000",
      "type": "0x2",
      "effectiveGasPrice": "0xbe08fb62"
    },
    {
      "transactionHash": "0x2045ae9337da4c051b1201f624231b42c8a9d9dc7005c7d5c7830e7d3913fb4e",
      "transactionIndex": "0x1",
      "blockHash": "0x2928a74a8bd0161689e1a760a5b0e3b4dab0354c3ad91f0e88cf336acf544ab7",
      "blockNumber": "0xe",
      "from": "0xf39Fd6e51aad88F6F4ce6aB8827279cffFb92266",
      "to": "0xA51c1fc2f0D1a1b8494Ed1FE312d7C3a78Ed91C0",
      "cumulativeGasUsed": "0x1507b",
      "gasUsed": "0x1507b",
      "contractAddress": null,
      "logs": [],
      "status": "0x1",
      "logsBloom": "0x00000000000000000000000000000000000000000000000000000000000000000000000000000000000000000000000000000000000000000000000000000000000000000000000000000000000000000000000000000000000000000000000000000000000000000000000000000000000000000000000000000000000000000000000000000000000000000000000000000000000000000000000000000000000000000000000000000000000000000000000000000000000000000000000000000000000000000000000000000000000000000000000000000000000000000000000000000000000000000000000000000000000000000000000000000000",
      "type": "0x2",
      "effectiveGasPrice": "0xbe08fb62"
    },
    {
      "transactionHash": "0xe30afd402fe20244308de0e43d559762fce81358a837b6684377f4f209dda15c",
      "transactionIndex": "0x0",
      "blockHash": "0x1636e9cadf9e164ac2ea2fdf316f6d9229aecbc5385db93038c3b3342a0235fb",
      "blockNumber": "0xf",
      "from": "0xf39Fd6e51aad88F6F4ce6aB8827279cffFb92266",
      "to": "0xA51c1fc2f0D1a1b8494Ed1FE312d7C3a78Ed91C0",
      "cumulativeGasUsed": "0xf6d6",
      "gasUsed": "0xf6d6",
      "contractAddress": null,
      "logs": [
        {
          "address": "0xA51c1fc2f0D1a1b8494Ed1FE312d7C3a78Ed91C0",
          "topics": [
            "0xda3c8142b3c1d27633026f55bfcb4eeb0b5b8db0daa0a3e10c2213a441722ad1",
            "0xc5b3644100000000000000000000000000000000000000000000000000000000",
            "0x0000000000000000000000005fbdb2315678afecb367f032d93f642f64180aa3"
          ],
          "data": "0x",
          "blockHash": "0x1636e9cadf9e164ac2ea2fdf316f6d9229aecbc5385db93038c3b3342a0235fb",
          "blockNumber": "0xf",
          "transactionHash": "0xe30afd402fe20244308de0e43d559762fce81358a837b6684377f4f209dda15c",
          "transactionIndex": "0x0",
          "logIndex": "0x0",
          "removed": false
        }
      ],
      "status": "0x1",
      "logsBloom": "0x00000000000000000000000000000000000000000000000000000000000000080000000000000000000000000000000000000000000000000000000000000000000000000000000000000000000000000000000000000000000000000000000000000000000000000000000000800000000004000000000010000000000000000000000000000000000000000000100000000000000400000000000000000200000000000000000000000000000000000000000000000000000000000000000000000000000000000000000000000000000000000408000000000000000000000000000000000200000000000002000000000000000000000000400000000000",
      "type": "0x2",
      "effectiveGasPrice": "0xbca3f798"
    },
    {
      "transactionHash": "0x201430c4e984f5058944eb516004976627219334d4c53b58db1f162ded486696",
      "transactionIndex": "0x0",
      "blockHash": "0xf7e74915f1c79967efaf14c01534990353f9d78e73355f6dfb18b646b7d34325",
      "blockNumber": "0x10",
      "from": "0xf39Fd6e51aad88F6F4ce6aB8827279cffFb92266",
      "to": "0xA51c1fc2f0D1a1b8494Ed1FE312d7C3a78Ed91C0",
      "cumulativeGasUsed": "0x5b85",
      "gasUsed": "0x5b85",
      "contractAddress": null,
      "logs": [],
      "status": "0x1",
      "logsBloom": "0x00000000000000000000000000000000000000000000000000000000000000000000000000000000000000000000000000000000000000000000000000000000000000000000000000000000000000000000000000000000000000000000000000000000000000000000000000000000000000000000000000000000000000000000000000000000000000000000000000000000000000000000000000000000000000000000000000000000000000000000000000000000000000000000000000000000000000000000000000000000000000000000000000000000000000000000000000000000000000000000000000000000000000000000000000000000",
      "type": "0x2",
      "effectiveGasPrice": "0xbb6ad783"
    },
    {
      "transactionHash": "0xab102851b0eeb4bd8138c13dbb7618ccf8c6724981cb6c3bafbb27fa938ef559",
      "transactionIndex": "0x0",
      "blockHash": "0x7c51af6aea5c9b1e3034c23e1c0ffb172afb78ddb854e8869c3837a68fad650b",
      "blockNumber": "0x11",
      "from": "0xf39Fd6e51aad88F6F4ce6aB8827279cffFb92266",
      "to": "0xA51c1fc2f0D1a1b8494Ed1FE312d7C3a78Ed91C0",
      "cumulativeGasUsed": "0xf8aa",
      "gasUsed": "0xf8aa",
      "contractAddress": null,
      "logs": [
        {
          "address": "0xA51c1fc2f0D1a1b8494Ed1FE312d7C3a78Ed91C0",
          "topics": [
            "0xda3c8142b3c1d27633026f55bfcb4eeb0b5b8db0daa0a3e10c2213a441722ad1",
            "0xe69b9edc00000000000000000000000000000000000000000000000000000000",
            "0x0000000000000000000000005fbdb2315678afecb367f032d93f642f64180aa3"
          ],
          "data": "0x",
          "blockHash": "0x7c51af6aea5c9b1e3034c23e1c0ffb172afb78ddb854e8869c3837a68fad650b",
          "blockNumber": "0x11",
          "transactionHash": "0xab102851b0eeb4bd8138c13dbb7618ccf8c6724981cb6c3bafbb27fa938ef559",
          "transactionIndex": "0x0",
          "logIndex": "0x0",
          "removed": false
        }
      ],
      "status": "0x1",
      "logsBloom": "0x00000000000000000000000000000000000000000000000000000000000000080000000000000100000000000000000000000000000000000000000000000000000000000000000000000000000000000000000000000000000000000000000000000000000000000002000000800000000004000000000010000000000000000000000000000000000000000000100000000000000400000000000000000000000000000000000000000000000000000000000000000000000200000000000000000000000000000000000000000000000000000008000000000000000000000000000000000000000000000002000000000000000000000000400000000000",
      "type": "0x2",
      "effectiveGasPrice": "0xba57f669"
    },
    {
      "transactionHash": "0x20fb175d000e61196d9c2bab9024ab17cd48c69d32715900cd725436cb91622a",
      "transactionIndex": "0x0",
      "blockHash": "0xae05ee9b9b10aac66293f53bf30b729678f1b5684594584539bdd9c4032fceaa",
      "blockNumber": "0x12",
      "from": "0xf39Fd6e51aad88F6F4ce6aB8827279cffFb92266",
      "to": "0xA51c1fc2f0D1a1b8494Ed1FE312d7C3a78Ed91C0",
      "cumulativeGasUsed": "0x5b85",
      "gasUsed": "0x5b85",
      "contractAddress": null,
      "logs": [],
      "status": "0x1",
      "logsBloom": "0x00000000000000000000000000000000000000000000000000000000000000000000000000000000000000000000000000000000000000000000000000000000000000000000000000000000000000000000000000000000000000000000000000000000000000000000000000000000000000000000000000000000000000000000000000000000000000000000000000000000000000000000000000000000000000000000000000000000000000000000000000000000000000000000000000000000000000000000000000000000000000000000000000000000000000000000000000000000000000000000000000000000000000000000000000000000",
      "type": "0x2",
      "effectiveGasPrice": "0xb9680923"
    },
    {
      "transactionHash": "0x822cdcdcd5ef1aa4b2ab57f997054ba435bb6c761ec494127dba788488458845",
      "transactionIndex": "0x1",
      "blockHash": "0xae05ee9b9b10aac66293f53bf30b729678f1b5684594584539bdd9c4032fceaa",
      "blockNumber": "0x12",
      "from": "0xf39Fd6e51aad88F6F4ce6aB8827279cffFb92266",
      "to": "0xA51c1fc2f0D1a1b8494Ed1FE312d7C3a78Ed91C0",
      "cumulativeGasUsed": "0x15603",
      "gasUsed": "0x15603",
      "contractAddress": null,
      "logs": [
        {
          "address": "0xA51c1fc2f0D1a1b8494Ed1FE312d7C3a78Ed91C0",
          "topics": [
            "0xda3c8142b3c1d27633026f55bfcb4eeb0b5b8db0daa0a3e10c2213a441722ad1",
            "0xed8b6b3100000000000000000000000000000000000000000000000000000000",
            "0x0000000000000000000000005fc8d32690cc91d4c39d9d3abcbd16989f875707"
          ],
          "data": "0x",
          "blockHash": "0xae05ee9b9b10aac66293f53bf30b729678f1b5684594584539bdd9c4032fceaa",
          "blockNumber": "0x12",
          "transactionHash": "0x822cdcdcd5ef1aa4b2ab57f997054ba435bb6c761ec494127dba788488458845",
          "transactionIndex": "0x1",
          "logIndex": "0x0",
          "removed": false
        }
      ],
      "status": "0x1",
      "logsBloom": "0x00000000000000000000000000000000000000000000000000000000000000080000000000000000000000000000000040000000000000000000000000000000000000000000000000000000000000000000000000000000000000000004000000000000000000000000000000000000000000000000000010000000000000000000000000000000000000000000100000000000000400000000000000000000100000000000000000000200000000000000000000000000000000000000000000000000000000000000000000000000000000000000001000000000000000002000000000000000000000000002000000000000000000000000400000000000",
      "type": "0x2",
      "effectiveGasPrice": "0xb9680923"
    },
    {
      "transactionHash": "0x641198259ae566c954de32c1a4a8cb1e00bf101840fd40fa20dd3d18710ef8ba",
      "transactionIndex": "0x2",
      "blockHash": "0xae05ee9b9b10aac66293f53bf30b729678f1b5684594584539bdd9c4032fceaa",
      "blockNumber": "0x12",
      "from": "0xf39Fd6e51aad88F6F4ce6aB8827279cffFb92266",
      "to": "0xA51c1fc2f0D1a1b8494Ed1FE312d7C3a78Ed91C0",
      "cumulativeGasUsed": "0x1b188",
      "gasUsed": "0x1b188",
      "contractAddress": null,
      "logs": [],
      "status": "0x1",
      "logsBloom": "0x00000000000000000000000000000000000000000000000000000000000000000000000000000000000000000000000000000000000000000000000000000000000000000000000000000000000000000000000000000000000000000000000000000000000000000000000000000000000000000000000000000000000000000000000000000000000000000000000000000000000000000000000000000000000000000000000000000000000000000000000000000000000000000000000000000000000000000000000000000000000000000000000000000000000000000000000000000000000000000000000000000000000000000000000000000000",
      "type": "0x2",
      "effectiveGasPrice": "0xb9680923"
    },
    {
      "transactionHash": "0x69de6423d3b3e8e3e31a856ce67adba8ae06ec259e624f4fd094b2b40c1069a4",
      "transactionIndex": "0x0",
      "blockHash": "0x632e9caa7f47a58e84e8cd2eb9b53b238d4652d657c1fe5b7f21bce267eaf04e",
      "blockNumber": "0x13",
      "from": "0xf39Fd6e51aad88F6F4ce6aB8827279cffFb92266",
      "to": "0xA51c1fc2f0D1a1b8494Ed1FE312d7C3a78Ed91C0",
      "cumulativeGasUsed": "0xfc52",
      "gasUsed": "0xfc52",
      "contractAddress": null,
      "logs": [
        {
          "address": "0xA51c1fc2f0D1a1b8494Ed1FE312d7C3a78Ed91C0",
          "topics": [
            "0xda3c8142b3c1d27633026f55bfcb4eeb0b5b8db0daa0a3e10c2213a441722ad1",
            "0xfe0d94c100000000000000000000000000000000000000000000000000000000",
            "0x0000000000000000000000000165878a594ca255338adfa4d48449f69242eb8f"
          ],
          "data": "0x",
          "blockHash": "0x632e9caa7f47a58e84e8cd2eb9b53b238d4652d657c1fe5b7f21bce267eaf04e",
          "blockNumber": "0x13",
          "transactionHash": "0x69de6423d3b3e8e3e31a856ce67adba8ae06ec259e624f4fd094b2b40c1069a4",
          "transactionIndex": "0x0",
          "logIndex": "0x0",
          "removed": false
        }
      ],
      "status": "0x1",
      "logsBloom": "0x00000000000000000000000000000000000000000000000040000000000000080000000000000000000000000000000000000000000000000400000000000000000000000000000000000000000000000000000000000000000000000000000000000000000000000000000000000000000000000000000010000000000000000000000000000000000000000000100000000000000400004000000000008000000000000000000000000000000000000000000000000100000000000000000000000000000000000000000000000000000000000000000000000000000000000000000000000000000000000002000000000001000000000000400000000000",
      "type": "0x2",
      "effectiveGasPrice": "0xb896a354"
    },
    {
      "transactionHash": "0x77dba594c98d027a95b54d615f523624b2a05824bdf331c2a98f1a1c423f20b3",
      "transactionIndex": "0x0",
      "blockHash": "0x5957fbea9ae70590a72ee37bf7225fb0da8b2a0f8919cfdb302130a5df334079",
      "blockNumber": "0x14",
      "from": "0xf39Fd6e51aad88F6F4ce6aB8827279cffFb92266",
      "to": "0xA51c1fc2f0D1a1b8494Ed1FE312d7C3a78Ed91C0",
      "cumulativeGasUsed": "0x5b85",
      "gasUsed": "0x5b85",
      "contractAddress": null,
      "logs": [],
      "status": "0x1",
      "logsBloom": "0x00000000000000000000000000000000000000000000000000000000000000000000000000000000000000000000000000000000000000000000000000000000000000000000000000000000000000000000000000000000000000000000000000000000000000000000000000000000000000000000000000000000000000000000000000000000000000000000000000000000000000000000000000000000000000000000000000000000000000000000000000000000000000000000000000000000000000000000000000000000000000000000000000000000000000000000000000000000000000000000000000000000000000000000000000000000",
      "type": "0x2",
      "effectiveGasPrice": "0xb7dea65f"
    },
    {
      "transactionHash": "0x7aadc1d886576b9800fd220304aff39d2b7cea4fb525180fc031b6e1191bea05",
      "transactionIndex": "0x0",
      "blockHash": "0x772458ba3977ae184c3e09e9eee04975203bc7c039c5f066e7603e0e4096aa56",
      "blockNumber": "0x15",
      "from": "0xf39Fd6e51aad88F6F4ce6aB8827279cffFb92266",
      "to": "0xA51c1fc2f0D1a1b8494Ed1FE312d7C3a78Ed91C0",
      "cumulativeGasUsed": "0x14890",
      "gasUsed": "0x14890",
      "contractAddress": null,
      "logs": [
        {
          "address": "0xA51c1fc2f0D1a1b8494Ed1FE312d7C3a78Ed91C0",
          "topics": [
            "0xda3c8142b3c1d27633026f55bfcb4eeb0b5b8db0daa0a3e10c2213a441722ad1",
            "0x06f7e36d00000000000000000000000000000000000000000000000000000000",
            "0x000000000000000000000000a513e6e4b8f2a923d98304ec87f64353c4d5c853"
          ],
          "data": "0x",
          "blockHash": "0x772458ba3977ae184c3e09e9eee04975203bc7c039c5f066e7603e0e4096aa56",
          "blockNumber": "0x15",
          "transactionHash": "0x7aadc1d886576b9800fd220304aff39d2b7cea4fb525180fc031b6e1191bea05",
          "transactionIndex": "0x0",
          "logIndex": "0x0",
          "removed": false
        }
      ],
      "status": "0x1",
      "logsBloom": "0x00000000000000000000000000400000000000000000000000000000000000080000000000000000000000002000000000000000000000000000000000000000000000000000000000000000000000000000000000400000000000000000000000000000000000000000000000000000000000000000000010000000000000000000000000000000000000000000100000000000000404000000000000000000000000000000000000000000000000000000000000000000000000000000000000000000000000000000000000000000000000000000000000000000000000000000000000000000000000020802000000000000000000000000400000000000",
      "type": "0x2",
      "effectiveGasPrice": "0xb73d1e04"
    },
    {
      "transactionHash": "0xa74b1ea17d529f33c8ef0eea325212aa953fb243a88c7bcb20c6c1496414fe3d",
      "transactionIndex": "0x0",
      "blockHash": "0xd04539ab625b3372fcfa4a5d9a4ed1b8d24a0ac9842af33146d180ec37a4d95b",
      "blockNumber": "0x16",
      "from": "0xf39Fd6e51aad88F6F4ce6aB8827279cffFb92266",
      "to": "0xA51c1fc2f0D1a1b8494Ed1FE312d7C3a78Ed91C0",
      "cumulativeGasUsed": "0x5b85",
      "gasUsed": "0x5b85",
      "contractAddress": null,
      "logs": [],
      "status": "0x1",
      "logsBloom": "0x00000000000000000000000000000000000000000000000000000000000000000000000000000000000000000000000000000000000000000000000000000000000000000000000000000000000000000000000000000000000000000000000000000000000000000000000000000000000000000000000000000000000000000000000000000000000000000000000000000000000000000000000000000000000000000000000000000000000000000000000000000000000000000000000000000000000000000000000000000000000000000000000000000000000000000000000000000000000000000000000000000000000000000000000000000000",
      "type": "0x2",
      "effectiveGasPrice": "0xb6b05146"
    },
    {
      "transactionHash": "0x974227362a218017475237c95818a6ae3143e45dc96ab77246c94af8c790b971",
      "transactionIndex": "0x0",
      "blockHash": "0xed3bbe59300b0444312b6a625925eba7defbd2a74e144ca52f979958806ff6cf",
      "blockNumber": "0x17",
      "from": "0xf39Fd6e51aad88F6F4ce6aB8827279cffFb92266",
      "to": "0xA51c1fc2f0D1a1b8494Ed1FE312d7C3a78Ed91C0",
      "cumulativeGasUsed": "0x10798",
      "gasUsed": "0x10798",
      "contractAddress": null,
      "logs": [
        {
          "address": "0xA51c1fc2f0D1a1b8494Ed1FE312d7C3a78Ed91C0",
          "topics": [
            "0xda3c8142b3c1d27633026f55bfcb4eeb0b5b8db0daa0a3e10c2213a441722ad1",
            "0x5cefc4ad00000000000000000000000000000000000000000000000000000000",
            "0x0000000000000000000000002279b7a0a67db372996a5fab50d91eaa73d2ebe6"
          ],
          "data": "0x",
          "blockHash": "0xed3bbe59300b0444312b6a625925eba7defbd2a74e144ca52f979958806ff6cf",
          "blockNumber": "0x17",
          "transactionHash": "0x974227362a218017475237c95818a6ae3143e45dc96ab77246c94af8c790b971",
          "transactionIndex": "0x0",
          "logIndex": "0x0",
          "removed": false
        }
      ],
      "status": "0x1",
      "logsBloom": "0x00000000000000000000000000000000000000000000000000000000000000080000000000000000000000002000000000000000000000000000080000000000000000000000000000000000000000000000000000000000000000000000000000000000000000000000000000000000000000000000000010000000000000000000000000000000000000000000108000000000000400000000000000000000000000000000000000100000000000000000000000000000000000000020000000000000000000000000000000000000000000000000000000000000000000000000000000000000000000000002000000100000000000000000400000000000",
      "type": "0x2",
      "effectiveGasPrice": "0xb6348472"
    },
    {
      "transactionHash": "0xbaf40bc53ccf9ffabbb3b4a8924bd21a590cf55999cfcf133d14a27e9d1f10f7",
      "transactionIndex": "0x0",
      "blockHash": "0x9a224786649b202a08ae29956ff3040e6ba0626ca880466b63aac9d90201b180",
      "blockNumber": "0x18",
      "from": "0xf39Fd6e51aad88F6F4ce6aB8827279cffFb92266",
      "to": "0xA51c1fc2f0D1a1b8494Ed1FE312d7C3a78Ed91C0",
      "cumulativeGasUsed": "0x5b85",
      "gasUsed": "0x5b85",
      "contractAddress": null,
      "logs": [],
      "status": "0x1",
      "logsBloom": "0x00000000000000000000000000000000000000000000000000000000000000000000000000000000000000000000000000000000000000000000000000000000000000000000000000000000000000000000000000000000000000000000000000000000000000000000000000000000000000000000000000000000000000000000000000000000000000000000000000000000000000000000000000000000000000000000000000000000000000000000000000000000000000000000000000000000000000000000000000000000000000000000000000000000000000000000000000000000000000000000000000000000000000000000000000000000",
      "type": "0x2",
      "effectiveGasPrice": "0xb5c87c9e"
    },
    {
      "transactionHash": "0x2bf60082cb770048feba55fe3a94fef07705200b6fa255a45fafabcef3cb31af",
      "transactionIndex": "0x1",
      "blockHash": "0x9a224786649b202a08ae29956ff3040e6ba0626ca880466b63aac9d90201b180",
      "blockNumber": "0x18",
      "from": "0xf39Fd6e51aad88F6F4ce6aB8827279cffFb92266",
      "to": "0xA51c1fc2f0D1a1b8494Ed1FE312d7C3a78Ed91C0",
      "cumulativeGasUsed": "0x164f1",
      "gasUsed": "0x164f1",
      "contractAddress": null,
      "logs": [
        {
          "address": "0xA51c1fc2f0D1a1b8494Ed1FE312d7C3a78Ed91C0",
          "topics": [
            "0xda3c8142b3c1d27633026f55bfcb4eeb0b5b8db0daa0a3e10c2213a441722ad1",
            "0x9f31e87b00000000000000000000000000000000000000000000000000000000",
            "0x0000000000000000000000008a791620dd6260079bf849dc5567adc3f2fdc318"
          ],
          "data": "0x",
          "blockHash": "0x9a224786649b202a08ae29956ff3040e6ba0626ca880466b63aac9d90201b180",
          "blockNumber": "0x18",
          "transactionHash": "0x2bf60082cb770048feba55fe3a94fef07705200b6fa255a45fafabcef3cb31af",
          "transactionIndex": "0x1",
          "logIndex": "0x0",
          "removed": false
        }
      ],
      "status": "0x1",
      "logsBloom": "0x00000000000000000000000000000000000000000000000000000000000000080000000000000000000000000000000000000000000000000000000000000000000000000004000000000000000008000000000000000000000000000000000000000000000000000000000010000000000000000000000010000200000000000000000000000000000000000000100000000000000400000000000000000000000000000000000000000000000000000000000000000000000000000000000000000000000000000000000000000000000000000000000000000000000000000000000000000000000400000002000000001000000000000000400000000000",
      "type": "0x2",
      "effectiveGasPrice": "0xb5c87c9e"
    },
    {
      "transactionHash": "0xe615e4d804e34c0cb6e434e70fefb4465e5212cb48098e4bf1a150a88ec9aa60",
      "transactionIndex": "0x0",
      "blockHash": "0x05e1e5658d18c8c6962d8528abf511856bb7c628cffe7fac36d62022285ca290",
      "blockNumber": "0x19",
      "from": "0xf39Fd6e51aad88F6F4ce6aB8827279cffFb92266",
      "to": "0xA51c1fc2f0D1a1b8494Ed1FE312d7C3a78Ed91C0",
      "cumulativeGasUsed": "0x5b85",
      "gasUsed": "0x5b85",
      "contractAddress": null,
      "logs": [],
      "status": "0x1",
      "logsBloom": "0x00000000000000000000000000000000000000000000000000000000000000000000000000000000000000000000000000000000000000000000000000000000000000000000000000000000000000000000000000000000000000000000000000000000000000000000000000000000000000000000000000000000000000000000000000000000000000000000000000000000000000000000000000000000000000000000000000000000000000000000000000000000000000000000000000000000000000000000000000000000000000000000000000000000000000000000000000000000000000000000000000000000000000000000000000000000",
      "type": "0x2",
      "effectiveGasPrice": "0xb56a0cf8"
    },
    {
      "transactionHash": "0x95cac089c0101571faa94ef7f79901f81846175afed0eb7ba1500f11195e6cc1",
      "transactionIndex": "0x0",
      "blockHash": "0x794b7bd501bdacc00b56ec4342b7aaac47f493b749ea8b291903120c17ef77ea",
      "blockNumber": "0x1a",
      "from": "0xf39Fd6e51aad88F6F4ce6aB8827279cffFb92266",
      "to": "0xA51c1fc2f0D1a1b8494Ed1FE312d7C3a78Ed91C0",
      "cumulativeGasUsed": "0x10b40",
      "gasUsed": "0x10b40",
      "contractAddress": null,
      "logs": [
        {
          "address": "0xA51c1fc2f0D1a1b8494Ed1FE312d7C3a78Ed91C0",
          "topics": [
            "0xda3c8142b3c1d27633026f55bfcb4eeb0b5b8db0daa0a3e10c2213a441722ad1",
            "0x9877696700000000000000000000000000000000000000000000000000000000",
            "0x000000000000000000000000610178da211fef7d417bc0e6fed39f05609ad788"
          ],
          "data": "0x",
          "blockHash": "0x794b7bd501bdacc00b56ec4342b7aaac47f493b749ea8b291903120c17ef77ea",
          "blockNumber": "0x1a",
          "transactionHash": "0x95cac089c0101571faa94ef7f79901f81846175afed0eb7ba1500f11195e6cc1",
          "transactionIndex": "0x0",
          "logIndex": "0x0",
          "removed": false
        }
      ],
      "status": "0x1",
      "logsBloom": "0x00000000000000000000000000000000000000100000000000000000000000280000000000000000000000000000000000000000000000000000000000000000001000000000000000000000000000000000000000000000000001000000000000000000000000000000000000000000000000000000000010000000000000000000000000000000000000000000100000000000000400000000000000000000000000000000000000020000000000000000000000000000000000000000000000000000000000000000000000000000000000000000000000000000000000000000000000000000000000000002000000000000000000000000400200000000",
      "type": "0x2",
      "effectiveGasPrice": "0xb516f85f"
    },
    {
      "transactionHash": "0xfda3394b34492485842523649e638d851b5a29d2c3bf2b53f3c8519e96ba272f",
      "transactionIndex": "0x0",
      "blockHash": "0x51a3b34d900bfc600770a46013057243ec812d92424e183229aff038bcec1828",
      "blockNumber": "0x1b",
      "from": "0xf39Fd6e51aad88F6F4ce6aB8827279cffFb92266",
      "to": "0xA51c1fc2f0D1a1b8494Ed1FE312d7C3a78Ed91C0",
      "cumulativeGasUsed": "0x5b85",
      "gasUsed": "0x5b85",
      "contractAddress": null,
      "logs": [],
      "status": "0x1",
      "logsBloom": "0x00000000000000000000000000000000000000000000000000000000000000000000000000000000000000000000000000000000000000000000000000000000000000000000000000000000000000000000000000000000000000000000000000000000000000000000000000000000000000000000000000000000000000000000000000000000000000000000000000000000000000000000000000000000000000000000000000000000000000000000000000000000000000000000000000000000000000000000000000000000000000000000000000000000000000000000000000000000000000000000000000000000000000000000000000000000",
      "type": "0x2",
      "effectiveGasPrice": "0xb4ce7a1c"
    },
    {
      "transactionHash": "0x8d91c03dda011af4022241a0d5f0309b62c8c8da625297601dcaaba4d9feca42",
      "transactionIndex": "0x0",
      "blockHash": "0x6f3002a920fdc00781d69e3f895be72a860aa78f5f0739fe3f91db40c4e1284d",
      "blockNumber": "0x1c",
      "from": "0xf39Fd6e51aad88F6F4ce6aB8827279cffFb92266",
      "to": null,
      "cumulativeGasUsed": "0x30777",
      "gasUsed": "0x30777",
      "contractAddress": "0x95401dc811bb5740090279Ba06cfA8fcF6113778",
      "logs": [
        {
          "address": "0x95401dc811bb5740090279Ba06cfA8fcF6113778",
          "topics": [
            "0xa657f2ad315cf3bb35cf1964158da75c3f334481df05a4a1644b2376b17a59b2",
            "0x000000000000000000000000a51c1fc2f0d1a1b8494ed1fe312d7c3a78ed91c0"
          ],
          "data": "0x",
          "blockHash": "0x6f3002a920fdc00781d69e3f895be72a860aa78f5f0739fe3f91db40c4e1284d",
          "blockNumber": "0x1c",
          "transactionHash": "0x8d91c03dda011af4022241a0d5f0309b62c8c8da625297601dcaaba4d9feca42",
          "transactionIndex": "0x0",
          "logIndex": "0x0",
          "removed": false
        },
        {
          "address": "0x95401dc811bb5740090279Ba06cfA8fcF6113778",
          "topics": [
            "0x1cf3b03a6cf19fa2baba4df148e9dcabedea7f8a5c07840e207e5c089be95d3e",
            "0x000000000000000000000000a51c1fc2f0d1a1b8494ed1fe312d7c3a78ed91c0"
          ],
          "data": "0x",
          "blockHash": "0x6f3002a920fdc00781d69e3f895be72a860aa78f5f0739fe3f91db40c4e1284d",
          "blockNumber": "0x1c",
          "transactionHash": "0x8d91c03dda011af4022241a0d5f0309b62c8c8da625297601dcaaba4d9feca42",
          "transactionIndex": "0x0",
          "logIndex": "0x1",
          "removed": false
        }
      ],
      "status": "0x1",
      "logsBloom": "0x00000800000000000000000000000000000000000000000000000000020000000000000000000000000000000000000000000000000000000000000000000000000000000000000000000000001000000000000000000000000000000000000000000000000000000000000000000000000040000000000000040000000000000100000000000000000000000000080000000000000000000000000000000000000000000000040000000002000000000000000000000000000000000000000000000000000000000000000000000000000000000000000000800000000000000000000000000000080000000000000000000000000008000000000000000000",
      "type": "0x2",
      "effectiveGasPrice": "0xb48ed018"
    }
  ],
  "libraries": [],
  "pending": [],
  "returns": {},
  "timestamp": 1712039371,
  "chain": 1,
  "commit": "2014781"
}